:020000040800F2
:1000000000800120514A0008691C00086B1C000890
:100010006D1C00086F1C0008711C00080000000027
:10002000000000000000000000000000731C000839
:10003000751C000800000000771C0008791C0008EF
:10004000A14A0008A14A0008A14A0008A14A0008E4
:10005000A14A0008A14A0008A14A0008A14A0008D4
:10006000A14A0008A14A0008A14A0008A14A0008C4
:10007000A14A0008A14A0008A14A0008A14A0008B4
:10008000A14A0008A14A0008A14A0008A14A0008A4
:10009000A14A0008A14A0008A14A0008811C0008E2
:1000A000A14A0008A14A0008A14A0008A14A000884
:1000B000A14A0008A14A0008A14A0008A14A000874
:1000C000A14A0008A14A0008A14A0008A14A000864
:1000D000A14A0008A14A0008A14A0008A14A000854
:1000E000A14A0008A14A0008A14A0008A14A000844
:1000F000A14A0008A14A0008A14A0008A14A000834
:10010000A14A0008A14A0008A14A0008A14A000823
:10011000A14A0008A14A0008951C0008A14A00084D
:10012000A14A0008A14A0008A14A0008A14A000803
:10013000A14A0008A14A0008A14A0008A14A0008F3
:10014000A14A0008A14A0008A14A0008A14A0008E3
:10015000A14A0008A14A0008A14A0008A14A0008D3
:10016000A14A0008A14A0008A14A0008A14A0008C3
:10017000A14A0008A14A0008000000000000000099
:08018000A14A0008A14A000891
:1001880010B5054C237833B9044B13B10448AFF3C9
:1001980000800123237010BD6804002000000000C7
:1001A800B44C000808B5034B1BB103490348AFF32F
:1001B800008008BD000000006C040020B44C00085A
:1001C8002DE9F04188B006460D460B238DF818300E
:1001D80000238DF819308DF81A308DF81B308DF802
:1001E8001C304021304801F049FF002859D0052033
:1001F80001F0E2FD2D4F00224FF40051384601F086
:1002080044FFDFF8AC8001240094052304AA06A962
:10021800404603F06AFD22464FF40051384601F08B
:1002280034FF204601F0C8FD00224FF40051384643
:1002380001F02BFF0094052304AA06A9404603F009
:1002480054FD9DF813309DF8142043EA0223FF2241
:100258008DF80F20AB4200DC1D46002D18DD002470
:1002680008E00123009332190DF10F01104803F043
:100278003CFD0134A542F4DC01224FF400510B4847
:1002880001F003FF00200B4B186008B0BDE8F081B7
:1002980001224FF40051054801F0F7FE4FF0FF30FE
:1002A800F3E76FF00100F0E700100048000C004889
:1002B800C40600208C040020002393420DDA30B4D9
:1002C800C55CCC5CA54205D101339342F8DB002024
:1002D80030BC70474FF0FF30FAE70020704700004D
:1002E80070B586B006460C460A238DF810300023F8
:1002F8008DF811308DF812308DF813308DF81430D8
:1003080000224FF40051154801F0BFFE012300936D
:10031800052302AA04A9124803F0E7FC9DF80A2065
:100328009DF8093043EA0223A3420EDA4FF0FF3565
:1003380001224FF40051094801F0A7FE094B0022A1
:100348001A60002DDCD106B070BD0123A2B231467F
:10035800034803F0D7FB0025EAE700BF000C00487C
:10036800C40600208C04002070B5122004F0C0FBE5
:1003780004462B4D2B4607CB20606160A2601B789A
:1003880023730023A373E3732374637463730E23CB
:10039800EB761B23EB741F2004F0AAFB064605F13D
:1003A800100307CB30607160B2601B783373256827
:1003B8006068A168E268C6F80D50C6F81100C6F872
:1003C8001510C6F81920228AA6F81D201F213046CC
:1003D800FFF786FF072004F08BFB0546114B1B68CF
:1003E800002BFBD007212846FFF7EAFE50B9072269
:1003F8000D492846FFF760FF20B90C4A138843F0DF
:1004080080031380284604F07BFB304604F078FB19
:10041800204604F075FB0A2001F0CEFC70BD00BF39
:10042800000000208C04002020000020840400200C
:1004380008B57F210648FFF7C3FE28B903220549FE
:100448000348FFF739FF00B108BDFFF78DFFFBE751
:100458000005002028000020F8B517461E46FFF7C3
:100468003FFF069D06EB4505284604F041FB104B6F
:100478001860002440210F4801F000FE20B9013423
:1004880047F230539C42F5DD2946094B1868FFF7BF
:1004980097FE044630B932463946054B1868FFF7CF
:1004A8000BFF04460A2001F087FC2046F8BD00BF78
:1004B8001806002000100048F0B583B00D46144C13
:1004C800D0F800C047688668C168C4F831C0C4F86D
:1004D8003570C4F83960C4F83D1084F8422001230F
:1004E8000093072304F14402172104F12C00FFF7BD
:1004F800B3FF30B9074B1A68D2792A701B681B7A88
:100508006B70044B186804F0FBFA03B0F0BD00BF31
:100518000000002018060020F0B583B00D46194CE5
:10052800D0F800C047688668C068C4F853C0C4F8EB
:100538005770C4F85B60C4F85F00117884F85010F5
:10054800527884F8512084F863309DF8203084F87C
:10055800653001230093072304F16C021E2104F186
:100568004C00FFF779FF30B9074B1A68D2792A7027
:100578001B681B7A6B70044B186804F0C1FA03B04F
:10058800F0BD00BF0000002018060020F0B583B0C1
:100598001E46DBB29D1D1C4C84F87750057884F804
:1005A8007850407884F87900087884F87A00497897
:1005B80084F87B1084F87C2084F87D3006F10A07E3
:1005C800384604F095FA054604F1740303CB286015
:1005D80069601B882B813246089905F10A0004F0EE
:1005E80097FA00230093072304F16C023946284642
:1005F800FFF732FF284604F083FA044B186804F02A
:100608007FFA03B0F0BD00BF0000002018060020EC
:100618002DE9F04182B0062004F06AFAC64B186052
:10062800C64B1B68002BFBD00621FFF7C9FD58B944
:100638000622C349C04B1868FFF73EFE20B9C14ADD
:10064800138843F0010313800A2001F0B5FBBA4B6D
:10065800186804F055FABC4800230093072300F1FA
:100668008C0204219430FFF7F7FE20B9B54A1388AD
:1006780043F002031380B04B186804F041FAB24803
:1006880003230093072300F198021946A030FFF7CF
:10069800E3FE90B9AB4A138843F004031380A64BDA
:1006A8001B68B3F80710A94A1180B3F80910A84AC3
:1006B8001180B3F80B20A74B1A809F4D286804F0CF
:1006C8001FFAA14C00940D230022A1499F48FFF76F
:1006D8005DFF9C4A138843F008031380286804F0E0
:1006E8000FFA00230093072304F1A802102104F154
:1006F800B000FFF7B1FE20B9924A138843F0100307
:1007080013808D4B186804F0FBF98F480023009381
:10071800072300F1C0020621C830FFF79DFE20B96B
:10072800884A138843F020031380834B186804F029
:10073800E7F9854800230093072300F1D00224211C
:10074800D830FFF789FE20B97E4A138843F040036A
:100758001380794B186804F0D3F9FFF705FE7E4E35
:10076800794C0F22314604F1FC00FFF7A5FE7B4DC2
:100778000227009716233246294604F58670FFF7AC
:10078800CBFE04F58E7300931623002229463046CB
:10079800FFF7FCFEDFF8D8811225009511233246B9
:1007A800414604F59A70FFF7B7FE04F5A27300936B
:1007B8001123002241463046FFF7E8FEDFF8B481F6
:1007C800009510233246414604F5AC70FFF7A4FEAD
:1007D80004F5B47300931023002241463046FFF716
:1007E800D5FEDFF8948100952B463246414604F544
:1007F800BC70FFF791FE04F5C47300932B460022EA
:1008080041463046FFF7C2FEDFF870810095142399
:100818003246414604F5CE70FFF77EFE04F5D673E6
:1008280000931423002241463046FFF7AFFE4C4E9A
:100838000C22314604F5E070FFF73EFEDFF84081F8
:10084800009718233246414604F5E870FFF764FE26
:1008580004F5F07300931823002241463046FFF751
:1008680095FEDFF82081009511233246414604F5B4
:10087800FC70FFF751FE04F5027300931123002268
:1008880041463046FFF782FEDFF8FC8000951123D1
:100898003246414604F50770FFF73EFE04F50B7338
:1008A80000931123002241463046FFF76FFEDFF820
:1008B800DC80009511233246414604F51070FFF79D
:1008C8002BFE04F514730093112300224146304691
:1008D800FFF75CFE234E0C22314604F51970FFF732
:1008E800EBFDDFF8AC80009717233246414604F54C
:1008F8001D70FFF711FE04F52173009317230022E2
:1009080041463046FFF742FE174F00951123324605
:10091800394604F52770FFF7FFFD04F52B730093A4
:100928001123002239463046FFF730FE0F4F00955D
:10093800112332462EE000BF180600208C04002048
:10094800840000208404002000000020D40400203B
:100958002406002000060020C4040020D004002043
:1009680014060020CC0400200C06002004060020F9
:10097800E0040020F0040020BC040020DC04002077
:10098800D804002028060020C004002010060020FB
:10099800FC040020394604F53070FFF7BDFD04F56E
:1009A800347300931123002239463046FFF7EEFDD9
:1009B8000A4F009511233246394604F53970FFF77E
:1009C800ABFD04F53D7400941123002239463046EE
:1009D800FFF7DCFD02B0BDE8F08100BFC8040020CD
:1009E8002DE9F04784B08046894692461E46BDF9F7
:1009F8003040DF1D384604F07BF805463246514644
:100A080004F086F8002C4CDB2B238DF808304E4B75
:100A180083FB0423E017C0EBA310C0B24B4A02FBD0
:100A280000F2A3184A4981FB031CD917C1EB6C11CA
:100A3800C9B26FF0630303FB01431A44454B83FBC0
:100A4800023CD317C3EBAC03DBB2C3EB431CC3EBD1
:100A58008C0C4FEA4C0201EB810CC1EBCC0C4FEA39
:100A68008C0E7244144400EB400C4FEACC0252FA4C
:100A780084F4E4B2D8B9002952D1002B3DD13034E6
:100A88008DF8094022238DF80A307D238DF80B302C
:100A980020238DF80C308DF80D308DF80E3003249E
:100AA80018E02D238DF80830644224B2AFE73030C7
:100AB8008DF8090030318DF80A1030338DF80B307D
:100AC80030348DF80C4022238DF80D307D238DF8BD
:100AD8000E300024C4F1070202A9A81904F018F87E
:100AE80000953B1B002249464046FFF74FFD28462C
:100AF80004F006F804B0BDE8F08730338DF809300B
:100B080030348DF80A4022238DF80B307D238DF880
:100B18000C3020238DF80D308DF80E300224D9E7E3
:100B280030318DF8091030338DF80A3030348DF8B3
:100B38000B4022238DF80C307D238DF80D302023B7
:100B48008DF80E300124C5E7D34D621018FCFFFF65
:100B58001F85EB51676666662DE9F0432DED028B24
:100B680085B00746884691461D46B0EE408A03F197
:100B78000806304603F0BCFF04462A46494603F0FF
:100B8800C7FFF2EE047A28EE278ABDEEC88A18EE6F
:100B9800103A18B2002854DB2B238DF808304E4B3E
:100BA80083FB00234FEAE07CCCEBA31C5FFA8CFCB0
:100BB8004A4A02FB0CF28318494981FB031ED917E4
:100BC800C1EB6E11C9B26FF0630303FB01031A4452
:100BD800444B83FB023ED317C3EBAE03DBB2C3EB3C
:100BE800431EC3EB8E0E4FEA4E0201EB810EC1EBA2
:100BF800CE0E4FEA8E094A4410440CEB4C0E4FEAD5
:100C0800CE0252FA80F0C0B2BCF1000F1FD1002909
:100C18004BD030318DF8091030338DF80A302E233F
:100C28008DF80B3030308DF80C0022238DF80D3004
:100C38007D238DF80E3020238DF80F304FF00109F9
:100C48001DE02D238DF80830404200B2A7E70CF1D3
:100C5800300C8DF809C030318DF80A1030338DF81A
:100C68000B302E238DF80C3030308DF80D002223F8
:100C78008DF80E307D238DF80F304FF00009C9F143
:100C8800080202A9601903F043FF0094A6EB0903C8
:100C9800002241463846FFF779FC204603F030FF32
:100CA80005B0BDEC028BBDE8F08330338DF8093018
:100CB8002E238DF80A3030308DF80B0022238DF862
:100CC8000C307D238DF80D3020238DF80E308DF8F3
:100CD8000F304FF00209D2E7D34D621018FCFFFF26
:100CE8001F85EB51676666662DE9F0418AB00024DE
:100CF800059406940794089409943B4BDA6C42F0E7
:100D08001002DA64DA6C02F010020092009ADA6CCF
:100D180042F00202DA64DA6C02F002020192019AED
:100D2800DA6C42F00802DA64DA6C02F00802029225
:100D3800029ADA6C42F00402DA64DA6C02F0040215
:100D48000392039ADA6C42F00102DA64DB6C03F076
:100D580001030493049BDFF8A08001224FF40051A3
:100D6800404601F092F9214E22464021304601F0DA
:100D78008CF901224FF480714FF0904001F085F911
:100D8800402705971A4B0693079405A9194801F0BF
:100D980091F84FF400530593012506950794032312
:100DA800089305A9404601F085F80597069507942C
:100DB800089405A9304601F07DF84FF48073059337
:100DC80006950794089405A94FF0904001F072F831
:100DD80022462146172001F015F8172001F046F8A1
:100DE8000AB0BDE8F08100BF0010024000080048CA
:100DF8000000111000100048000C004872B6FEE711
:100E080008B50F480F4B03604FF48273436000230B
:100E180083604FF4E062C260036143614FF4007283
:100E28008261C3610362436283620722C262036311
:100E38000823436302F0F7FD00B908BDFFF7DEFFA2
:100E4800C4060020003C004008B51148114B03605F
:100E5800114B4360002383600122C2600361436138
:100E68008361C361036201F061FA50B90021084847
:100E780001F036FC38B90021054801F05FFC20B9C3
:100E880008BDFFF7BBFFFFF7B9FFFFF7B7FF00BFCC
:100E980078060020005800400E09002000B585B0F3
:100EA80000230193029303930E480F4A026040F611
:100EB8009F72426083604FF47A72C260836103F06C
:100EC8002BFB50B900230193039301A9054803F0B4
:100ED80023FD20B905B05DF804FBFFF78FFFFFF78E
:100EE8008DFF00BF280700200010004010B596B005
:100EF80000241394149415940C940D940E940F9448
:100F08001094119412942C22214601A803F00BFE90
:100F18002048214B03606423436084604FF4FA73D4
:100F2800C36004614461846103F025FB002829D172
:100F380000231393159313A9164803F0EDFC18BB6F
:100F480060230C9300220D920E920F921092119230
:100F580012920CA90F4803F083FBB8B90023019340
:100F680002930393049305934FF4005206920B9354
:100F780001A9084803F01CFD50B9064800F046FED8
:100F880016B010BDFFF73AFFFFF738FFFFF736FF3F
:100F9800FFF734FF2C0600200040014000B5B9B02F
:100FA8004022002128A803F0BEFD002122912391B0
:100FB8002491259126918822684603F0B4FD1023D8
:100FC800279301232D9370232F9327A801F0D4FC96
:100FD800D0B90F23229300212391249125912691A2
:100FE80022A801F0E5FF88B9802300930023159318
:100FF800684602F0E7F958B94FF4007001F0D2FBE7
:1010080040B939B05DF804FBFFF7F8FEFFF7F6FECC
:10101800FFF7F4FEFFF7F2FE2DE9F0418AB000F089
:10102800A9FEFFF7BBFFFFF75FFEFFF7E9FEFFF73B
:101038000BFFFFF733FFFFF759FF00224FF48071D2
:101048004FF0904001F021F80A2000F0B5FE01228F
:101058004FF480714FF0904001F017F8FFF7D8FA7D
:10106800012240215C4801F010F80A2000F0A4FE9B
:1010780000F03CFB00F0E2F800240994574803F024
:10108800CFF800F047F900F079FB00F03DFC21466D
:10109800534803F08BFB02E0FFF7CAF930BF402149
:1010A800504800F0EBFF0028F6D14F4B1B68002B8F
:1010B800F4D04D4B00221A6009A800F02BFB4B4CD2
:1010C800BDF9243000930D23494A4A492046FFF7C9
:1010D80087FC0A2000F070FE06A800F0C1FA9DED1A
:1010E800060A0923444A45492046FFF735FD0A20E8
:1010F80000F062FE07A800F06DFA9DED070A0823CC
:101108003F4A40492046FFF727FD0A2000F054FED9
:101118000DF1120205A90DF1160000F045FBDFF8EC
:101128001881394DBDF9163000930A2342463749D4
:101138002846FFF755FC364FBDF9143000930A23B3
:101148003A4634492846FFF74BFC334EBDF9123076
:1011580000930A23324631492846FFF741FC08A884
:1011680000F082F89DED080A0A232D4A2D492046F1
:10117800FFF7F2FC0A2000F01FFE03AA0DF10E0192
:1011880004A800F0D7FB284CBDF9103000930A23BF
:10119800424626492046FFF723FCBDF90E3000934E
:1011A8000A233A4622492046FFF71AFCBDF90C30BB
:1011B80000930A2332461F492046FFF711FC00F02E
:1011C80095FA099BB3F5FA7F01DD4FF4FA73044AE7
:1011D8001268536362E700BF000800482807002030
:1011E8002C0600200010004888040020C4040020B9
:1011F800AC010020DC04002044010020E0040020B1
:1012080068010020F00400201406002028060020B1
:10121800D0020020C0040020F402002010060020A4
:1012280088010020BC040020CC0400200C0600200B
:1012380004060020C8040020AC02002000B585B0D8
:10124800074B1B8804AA22F8043D012300930223BC
:10125800BA21044801F0C8F805B05DF804FB00BFE6
:10126800D04C000878060020F0B587B00746282340
:101278008DF8143029238DF810302A238DF80C307E
:10128800224D01260096022305AABA21284601F01C
:10129800ABF80096022302AABB21284601F0A4F865
:1012A8009DF808400096022304AABA21284601F0B6
:1012B8009BF80096022302AABB21284601F094F865
:1012C8009DF8083044EA03240096022303AABA21B1
:1012D800284601F089F80096022302AABB21284675
:1012E80001F082F89DF8083044EA0343B3F5000F93
:1012F80000DB5B4207EE903AF8EEE77A9FED047A5E
:1013080067EE877AC7ED007A07B0F0BD780600204F
:101318000000803970B58EB0AB4B9B880EAA22F8BE
:10132800043DAA4E012400940223BE21304601F058
:101338005BF832238DF82C3033238DF82830009455
:1013480023460BAABE21304601F04EF800942346EE
:101358000CAABF21304601F005F99DF830309C4DAC
:101368002B60009423460AAABE21304601F03CF8BF
:10137800009423460CAABF21304601F0F3F89DF8EB
:1013880030306B600EAA352302F8143D00942346D2
:10139800BE21304601F028F8009423460CAABF214C
:1013A800304601F0DFF89DF830301A0202F440723E
:1013B80029680A439B101B0203F4407369680B43B6
:1013C800D2102A60DB106B603C238DF820303D235F
:1013D8008DF81C300094234608AABE21304601F03F
:1013E80003F8009423460CAABF21304601F0BAF84E
:1013F8009DF830302B810094234607AABE21304641
:1014080000F0F2FF009423460CAABF21304601F0F9
:10141800A9F89DF830202B8943EA02232B813E232B
:101428008DF818303F238DF814300094234606AA0F
:10143800BE21304600F0D8FF009423460CAABF21F5
:10144800304601F08FF89DF830306B8100942346C8
:1014580005AABE21304600F0C7FF009423460CAA17
:10146800BF21304601F07EF89DF830206B8943EAB1
:1014780002231BB26B816A682968521A07EE902A08
:10148800B8EEE77AB5F908209B1A07EE903AF8EE1D
:10149800E77AC7EE276AC5ED036A30238DF8103066
:1014A80031238DF80C300094234604AABE2130461F
:1014B80000F09AFF009423460CAABF21304601F0A1
:1014C80051F89DF830302B740094234603AABE21AE
:1014D800304600F089FF009423460CAABF2130460D
:1014E80001F040F89DF830302A7CE2402A74E3404D
:1014F8006B7436238DF8203037238DF81C30009418
:10150800234608AABE21304600F06EFF0094234609
:101518000CAABF21304601F025F89DF830306B82C7
:101528000094234607AABE21304600F05DFF0094D0
:1015380023460CAABF21304601F014F89DF830204C
:101548006B8A43EA02236B823A238DF818303B23D7
:101558008DF814300094234606AABE21304600F0C8
:1015680043FF009423460CAABF21304600F0FAFF3F
:101578009DF83030AB820094234605AABE21304640
:1015880000F032FF009423460CAABF21304600F039
:10159800E9FF9DF83020AB8A43EA02231BB2AB82F5
:1015A8006A7C297C521A07EE902AB8EEE77AB5F9D8
:1015B80012209B1A07EE903AF8EEE77AC7EE276AF0
:1015C800C5ED066A0EB070BDD04C00087806002044
:1015D80090040020F0B587B0074628238DF8143012
:1015E80029238DF810301C4E01240094234605AAA7
:1015F800BE21304600F0F8FE0094234603AABF211E
:10160800304600F0AFFF9DF80C500094234604AA22
:10161800BE21304600F0E8FE0094234603AABF210D
:10162800304600F09FFF9DF80C3045EA430307EE73
:10163800903AF8EEE77A094B93ED067A67EE877AE7
:101648001B7C07EE103AB8EEC77A77EE277AC7ED1B
:10165800007A07B0F0BD00BF780600209004002093
:10166800F0B587B007462A238DF814302B238DF860
:1016780010301C4E012500952B4605AABE21304688
:1016880000F0B2FE00952B4603AABF21304600F0B9
:1016980069FF9DF80C4000952B4604AABE213046F0
:1016A80000F0A2FE00952B4603AABF21304600F0A9
:1016B80059FF9DF80C3044EA032424B207EE904AFF
:1016C800F8EEE77A084B93ED037A67EE877A93EDA5
:1016D800007AB8EEC77A77EE277AC7ED007A07B0B6
:1016E800F0BD00BF780600209004002000B585B04A
:1016F80000238DF80C3001238DF80D300093022360
:1017080003AA5221024800F06FFE05B05DF804FB01
:101718007806002070B584B005461E238DF80C307D
:1017280000238DF808308DF80930134E01240094F9
:10173800234603AA5221304600F056FE00940223A5
:1017480002AA5321304600F00DFF9DF808209DF8AD
:10175800093003EB0223143B2B60002B08DB2B68BA
:10176800B3F5FA6F02DD4FF4FA632B6004B070BD75
:1017780000232B60F3E700BF7806002000B585B092
:10178800074B1B8904AA22F8043D01230093022376
:10179800D421044800F028FE05B05DF804FB00BF22
:1017A800D04C0008780600202DE9F04385B081462A
:1017B8008846174604AE282306F8043D514D0124F7
:1017C800009423463246D421284600F00DFE0094AA
:1017D800234602AAD521284600F0C4FE9DF8083009
:1017E800A9F8003029238DF80C300094234632469E
:1017F800D421284600F0F8FD0094234602AAD521FA
:10180800284600F0AFFE9DF80820B9F8003043EAFA
:101818000223A9F800302A238DF80C3000942346BF
:101828003246D421284600F0DFFD0094234602AA60
:10183800D521284600F096FE9DF80830A8F800301B
:101848002B238DF80C30009423463246D4212846A9
:1018580000F0CAFD0094234602AAD521284600F0CC
:1018680081FE9DF80820B8F8003043EA0223A8F862
:1018780000302C238DF80C30009423463246D421B6
:10188800284600F0B1FD0094234602AAD521284637
:1018980000F068FE9DF808303B802D238DF80C3051
:1018A800009423463246D421284600F09DFD00943A
:1018B800234602AAD521284600F054FE9DF80820A8
:1018C8003B8843EA02233B80B9F90030002B12DB46
:1018D8001B11A9F80030B8F90030002B0DDB1B11E3
:1018E800A8F80030B7F90030002B08DB1B113B804B
:1018F80005B0BDE8F0830F33EAE70F33EFE70F33A6
:10190800F4E700BF7806002000B585B022238DF8E3
:101918000C3000238DF80D3001230093022303AA15
:101928003C21034800F060FD05B05DF804FB00BFF2
:10193800780600202DE9F04385B081468846174691
:1019480004AE282306F8043D514D01240094234693
:1019580032463C21284600F047FD0094234602AA5F
:101968003D21284600F0FEFD9DF80830A9F800301A
:1019780029238DF80C300094234632463C21284612
:1019880000F032FD0094234602AA3D21284600F0CB
:10199800E9FD9DF80820B9F8003043EA0223A9F8C8
:1019A80000302A238DF80C300094234632463C211F
:1019B800284600F019FD0094234602AA3D21284636
:1019C80000F0D0FD9DF80830A8F800302B238DF8E2
:1019D8000C300094234632463C21284600F004FD92
:1019E8000094234602AA3D21284600F0BBFD9DF83D
:1019F8000820B8F8003043EA0223A8F800302C2366
:101A08008DF80C300094234632463C21284600F0DD
:101A1800EBFC0094234602AA3D21284600F0A2FDD3
:101A28009DF808303B802D238DF80C300094234618
:101A380032463C21284600F0D7FC0094234602AAEF
:101A48003D21284600F08EFD9DF808203B8843EA9A
:101A580002233B80B9F90030002B12DBDB10A9F818
:101A68000030B8F90030002B0DDBDB10A8F800308F
:101A7800B7F90030002B08DBDB103B8005B0BDE870
:101A8800F0830733EAE70733EFE70733F4E700BFEC
:101A98007806002082B00A4B1A6E42F001021A66DC
:101AA8001A6E02F001020092009A9A6D42F080527A
:101AB8009A659B6D03F080530193019B02B07047B8
:101AC8000010024010B588B00023039304930593D7
:101AD800069307930268144B9A4201D008B010BDD0
:101AE800124CE36C43F00203E364E36C03F002037B
:101AF8000193019B4FF44063039312230493012342
:101B08000593032306930423079303A9084800F0C9
:101B1800D1F9A36D43F48003A365A36D03F4800397
:101B28000293029BDAE700BF005800400010024011
:101B38000004004800B589B000230393049305937B
:101B4800069307930268144B9A4202D009B05DF8D5
:101B580004FB03F5EA339A6D42F400429A659A6DE4
:101B680002F400420192019ADA6C42F00402DA644B
:101B7800DB6C03F004030293029B4FF4E0530393DE
:101B880002230493032306930623079303A9034818
:101B980000F090F9DAE700BF003C00400008004878
:101BA80002680E4B9A4200D0704700B583B003F527
:101BB80000339A6D42F010029A659B6D03F0100392
:101BC8000193019B00221146362000F01BF93620B4
:101BD80000F04CF903B05DF804FB00BF00100040B2
:101BE8000268094B9A4200D0704782B003F550430F
:101BF8001A6E42F480321A661B6E03F48033019326
:101C0800019B02B0704700BF0040014000B587B09B
:101C180000230193029303930493059302680E4BE8
:101C28009A4202D007B05DF804FB03F55043DA6C22
:101C380042F00202DA64DB6C03F002030093009BBB
:101C48004FF480430193022302930E23059301A9C5
:101C5800024800F02FF9E5E7004001400004004881
:101C6800FEE7FEE7FEE7FEE7FEE7704770477047CE
:101C780008B500F08FF808BD08B5034B01221A60BB
:101C8800402000F009FA08BD8C04002008B5034B79
:101C980001221A60024802F00EFB08BD88040020E9
:101CA8002807002008B503460B4A126842B10A4AC1
:101CB800106803446A46934206D8074A136008BD71
:101CC800054A06491160F2E702F0E8FE0C230360BA
:101CD8004FF0FF30F3E700BFAC040020800700207E
:101CE8000F49D1F8883043F47003C1F888300D4BA0
:101CF8001A6842F001021A60002098601A6822F0FF
:101D0800A85222F410221A604FF48052DA601A683E
:101D180022F480221A6098614FF000638B6070474C
:101D280000ED00E000100240104B1B780BB90120B9
:101D3800704710B504464FF47A70B0FBF3F30C4AC1
:101D48001068B0FBF3F000F09FF868B90F2C01D9C8
:101D580001200AE0002221464FF0FF3000F052F83F
:101D6800024B5C60002000E0012010BDFC03002055
:101D7800F803002010B5032000F032F80020FFF728
:101D8800D3FF10B10124204610BD0446FFF782FEA0
:101D9800F9E70000034B1B78034A11680B441360F2
:101DA800704700BFFC03002074070020014B18682F
:101DB800704700BF7407002038B50446FFF7F6FFE8
:101DC8000546B4F1FF3F02D0044B1B781C44FFF7D3
:101DD800EDFF401BA042FAD338BD00BFFC03002032
:101DE800074AD36823F4E0631B041B0C000200F4C9
:101DF800E060184340F0BF6040F40030D0607047A6
:101E080000ED00E030B4174BDB68C3F30223C3F1E5
:101E18000704042C28BF04241D1D062D18D9033BD4
:101E28004FF0FF3505FA04F421EA0401994005FA58
:101E380003F322EA0303194300280BDB0901C9B2A3
:101E480000F1604000F5614080F8001330BC704735
:101E58000023E5E700F00F000901C9B2024B19544D
:101E6800F4E700BF00ED00E014ED00E0002807DB18
:101E780000F01F02400901239340024A42F8203033
:101E8800704700BF00E100E00138B0F1807F0AD25E
:101E9800064B5860064AF02182F82310002098600B
:101EA80007221A6070470120704700BF10E000E069
:101EB80000ED00E0F0B583B000233FE0C66A26EAF3
:101EC8000406C5F3C0049C403443C4625FE00624A2
:101ED80000E00024B4403C430235644E46F82540F7
:101EE800634C2568D44304EA05064F6817F4803F1D
:101EF80001D042EA05065E4D2E606D6804EA0506CB
:101F08004F6817F4003F01D042EA0506584D6E604D
:101F1800AD6804EA05064F6817F4801F01D042EA4D
:101F28000506534DAE60ED682C404E6816F4001F50
:101F380001D042EA05044E4AD46001330A6832FAF5
:101F480003F400F0918001249C402240F5D04D68B4
:101F58006E1E012E03D9112D01D0122D12D18668C3
:101F68005F000325BD4026EA0506CD68BD40354320
:101F78008560466826EA04064D68C5F300159D404D
:101F8800354345604D6805F00306032E96D0C568B5
:101F98005F000324BC40E44325408E68BE402E43C6
:101FA800C6604D68022D01D0122D13D1DE08083607
:101FB80050F826E003F007054FEA850C0F2505FACF
:101FC8000CF52EEA050E0D6905FA0CF545EA0E0525
:101FD80040F8265005682C404D6805F00305BD40C3
:101FE8002C4304604C6814F0805FA6D0214C256E09
:101FF80045F001052566246E04F001040194019C56
:102008009D08AE1C194C54F8267003F00304A60072
:102018000F24B44027EA0407B0F1904F3FF459AFBA
:10202800154CA04216D004F58064A04214D004F5E3
:102038008064A04212D004F58064A04210D004F558
:102048008064A0420ED004F58064A0423FF43FAF04
:1020580007243FE701243DE702243BE7032439E74F
:10206800042437E7052435E703B0F0BD000001403C
:1020780000040140001002400004004803691942AE
:1020880001D100207047012070470AB9816270476A
:10209800816170477047000008B5054B5B690342D2
:1020A80000D108BD024B5861FFF7F4FFF9E700BF04
:1020B8000004014003689A6912F0020F01D000225F
:1020C8009A6203689A6912F0010F03D19A6942F083
:1020D80001029A61704770B4039E05686868740DC0
:1020E80004F4806444F07F7444F4583444F47F74F6
:1020F80044F0030420EA0400C1F3090141EA024163
:10210800194331430143696070BC704770B5044698
:102118000D46164603689B6913F0100F1CD0236800
:102128009A6912F0200F19D1B5F1FF3FF7D0FFF7E8
:102138003DFE801BA84201D8002DF0D1636C43F00E
:1021480020036364202384F84130002384F842305C
:1021580084F84030012020E000201EE01022DA61DF
:1021680023682025DD612046FFF7A4FF2268536815
:1021780023F0FF7323F48B3323F4FF7323F001035D
:102188005360636C43F00403636484F84150002394
:1021980084F8423084F84030012070BD70B50446A0
:1021A8000D46164623689B6913F0020F1DD132466F
:1021B80029462046FFF7AAFFC8B9B5F1FF3FF1D07D
:1021C800FFF7F4FD801BA84201D8002DEAD1636C0B
:1021D80043F020036364202384F84130002384F80B
:1021E800423084F84030012000E0002070BD01201A
:1021F800FCE7F8B505460F4616461C462B689B6952
:1022080037EA03030CBF01230023B34218D1B4F10A
:10221800FF3FF3D0FFF7CAFD069BC01AA04201D8C2
:10222800002CEBD16B6C43F020036B64202385F802
:102238004130002385F8423085F84030012000E025
:102248000020F8BD70B505460C4616462B689B69FC
:1022580013F0200F1AD1324621462846FFF756FFC1
:10226800B0B9FFF7A3FD801BA04201D8002CEDD127
:102278006B6C43F020036B64202385F84130002306
:1022880085F8423085F84030012070BD0020FCE719
:102298000120FAE770B504460D46164623689B6987
:1022A80013F0040F3ED1324629462046FFF72EFF91
:1022B8000146002838D123689A6912F0200F13D1FB
:1022C800FFF774FD801BA84201D8002DE6D1636C8E
:1022D80043F020036364202384F84130002384F80A
:1022E80040300121084670BD9A6912F0040F02D0EF
:1022F800228D002AF6D12022DA6121684B6823F06A
:10230800FF7323F48B3323F4FF7323F001034B6033
:102318000023636484F8412084F8423084F8403014
:102328000121DFE70021DDE70121DBE7002859D0A3
:1023380010B5044690F84130002B43D0242384F88C
:1023480041302268136823F0010313606368226830
:1023580023F0706313612268936823F40043936049
:10236800E368012B33D0A368226843F404439360E5
:10237800E368022B31D02268536843F0007343F4BA
:10238800004353602268D36823F40043D360236971
:1023980062691343A169226843EA0123D360E369B0
:1023A800216A22680B4313602268136843F0010313
:1023B800136000206064202384F84130206384F88F
:1023C800420010BD80F84030FFF77CFBB6E7A368F9
:1023D800226843F400439360CAE723684FF400621D
:1023E8005A60C8E7012070472DE9F04383B090F8A0
:1023F8004150EDB2202D40F0A48090F84040012CCF
:1024080000F0A480984617460E4604464FF001098E
:1024180080F84090FFF7CAFC0546009019234A4609
:102428004FF400412046FFF7E4FE002840F090807A
:10243800212384F84130102384F842300023636458
:102448006762A4F82A806363638D9BB2FF2B0AD965
:10245800FF222285424B00934FF08073314620467D
:10246800FFF739FE18E0628D92B222853C4B00934B
:102478004FF00073D2B231462046FFF72CFE0BE036
:10248800628D92B22285002300934FF00073D2B27E
:1024980031462046FFF71FFE638D9BB2002B33D0D9
:1024A8002A460A992046FFF779FE002852D1626A27
:1024B800236812789A62636A01336362638D013B11
:1024C8009BB26385238D013B9BB22385628D92B2BB
:1024D800002AE1D0002BDFD100950A9B0022802141
:1024E8002046FFF786FE002836D1638D9BB2FF2B6E
:1024F800C6D9FF222285002300934FF0807331460E
:102508002046FFF7E8FDC7E72A460A992046FFF765
:1025180099FE034610BB22682021D16120684268D9
:1025280022F0FF7222F48B3222F4FF7222F00102B1
:10253800426084F84110002284F8422084F8402048
:1025480000E00223184603B0BDE8F0830223F9E750
:102558000123F7E70123F5E70123F3E70123F1E777
:10256800002000802DE9F04383B090F84150EDB28F
:10257800202D40F0A48090F84040012C00F0A48069
:10258800984617460E4604464FF0010980F84090D9
:10259800FFF70CFC0546009019234A464FF400410A
:1025A8002046FFF726FE002840F09080222384F87A
:1025B8004130102384F84230002363646762A4F832
:1025C8002A806363638D9BB2FF2B0AD9FF22228581
:1025D800424B00934FF0807331462046FFF77BFD56
:1025E80018E0628D92B222853C4B00934FF0007345
:1025F800D2B231462046FFF76EFD0BE0628D92B2F3
:102608002285002300934FF00073D2B23146204652
:10261800FFF761FD638D9BB2002B33D02A460A99E0
:102628002046FFF737FE002852D123685A6A636AAA
:102638001A70636A01336362238D013B9BB2238561
:10264800628D013A92B26285628D92B2002AE1D01F
:10265800002BDFD100950A9B002280212046FFF73E
:10266800C8FD002836D1638D9BB2FF2BC6D9FF2247
:102678002285002300934FF0807331462046FFF7F0
:102688002AFDC7E72A460A992046FFF7DBFD0346DD
:1026980010BB22682021D1612068426822F0FF72B5
:1026A80022F48B3222F4FF7222F00102426084F895
:1026B8004110002284F8422084F8402000E00223E0
:1026C800184603B0BDE8F0830223F9E70123F7E7D2
:1026D8000123F5E70123F3E70123F1E70024008054
:1026E80090F84130DBB2202B24D190F84030012BF8
:1026F80022D0012380F84030242380F8413002683A
:10270800136823F0010313600268136823F48053ED
:10271800136002681368194311600268136843F074
:1027280001031360202380F84130002380F84030F3
:1027380018467047022070470220704790F84130D1
:10274800DBB2202B22D190F84030012B20D001237E
:1027580080F84030242380F841300268136823F061
:10276800010313600268136823F4706343EA0121CC
:1027780011600268136843F001031360202380F896
:102788004130002380F840301846704702207047D7
:1027980002207047024B186800F4C060704700BF01
:1027A80000700040B0F5007F0FD01F4B1B6803F48A
:1027B800C063B3F5806F34D01B4A136823F4C06339
:1027C80043F48063136000207047174B1B6803F4C1
:1027D800C063B3F5007F22D0134A136823F4C063A3
:1027E80043F400731360114B1A68322303FB02F39E
:1027F8000F4AA2FB03239B0C013300E0013B0A4A6A
:10280800526912F4806F01D0002BF7D1064B5B6937
:1028180013F4806F01D10020704703207047002017
:1028280070470020704700BF00700040F803002088
:1028380083DE1B4330B583B00546204B9B6D13F0F8
:10284800805F0BD0FFF7A6FFB0F5007F17D0802D73
:102858001FD82DD0702D2DD000211BE0174CA36D53
:1028680043F08053A365A36D03F080530193019B4C
:10287800FFF790FFA36D23F08053A365E4E7802D55
:1028880003D9A02D03D9022104E0002102E001218F
:1028980000E003210A4A136823F007030B4313607F
:1028A800136803F007038B4206D0012003B030BD44
:1028B8000221EFE70121EDE70020F7E700100240D1
:1028C80000200240284A9368D26802F0030213F0FD
:1028D8000C030AD00C2B06D0042B1FD0082B20D0B9
:1028E8000020024610E0012AF6D11F4A126812F0B1
:1028F800080F0CD11C4AD2F89420C2F303221B49BA
:1029080051F8222043B100200C2B0DD07047164AF5
:102918001268C2F30312F2E71046F5E714480022E2
:10292800F2E714480022EFE70F4BDB6803F00303DC
:10293800022B15D0032B15D00B4BD868C0F302100F
:102948000130D968C1F3062102FB01F2B2FBF0F2B3
:10295800D868C0F3416001304000B2FBF0F0D5E721
:10296800034AE9E7034AE7E700100240DC4C0008A5
:102978000024F40000127A00002800F00083F0B56B
:1029880083B00446AF4B9D6805F00C05DE6806F081
:102998000306036813F0100F5BD0E5B10C2D18D0B7
:1029A800A369002B00F0BC80A64A136843F001031A
:1029B8001360FFF7FBF90746A24B1B6813F0020FE1
:1029C80040F09B80FFF7F2F9C01B0228F4D90323DB
:1029D800E1E2012EE4D19B4B1B6813F0020F03D0F8
:1029E800A369002B00F0CE82206A964B1B6813F077
:1029F800080F5CD0934B1B6803F0F00398425DD836
:102A0800904B1A6842F008021A601A6822F0F00225
:102A1800216A0A431A605A6822F47F42E16942EA4D
:102A280001225A60002D61D0FFF74CFF854B9B684F
:102A3800C3F30313844AD35C03F01F03D840834BCA
:102A48001860834B1868FFF76FF90346002840F0B9
:102A5800A282236813F0010F00F08180082D75D041
:102A68000C2D71D06368B3F5803F00F09780B3F503
:102A7800A02F00F09980734B1A6822F480321A60F4
:102A88001A6822F480221A606368002B00F099808B
:102A9800FFF78CF907466B4B1B6813F4003F5ED1B8
:102AA800FFF784F9C01B6428F5D9032373E2654B4B
:102AB800D3F894301B0903F0F0039FE7FFF7BAFE41
:102AC800002840F061825F4B1A6842F008021A60E1
:102AD8001A6822F0F002216A0A431A605A6822F43E
:102AE8007F42E16942EA01225A609DE7206AFFF7C6
:102AF800A1FE002898D001234DE2524B1A6842F0FB
:102B080008021A601A6822F0F002216A0A431A6061
:102B18005A6822F47F42E16942EA01225A6098E742
:102B2800484A136823F001031360FFF73FF907468B
:102B3800444B1B6813F0020F8BD0FFF737F9C01B0B
:102B48000228F5D9032326E2032E8BD13D4B1B68BF
:102B580013F4003F03D06368002B00F0178223684A
:102B680013F0020F4FD0042D3CD00C2D38D0E36861
:102B7800002B78D0334A136843F480731360FFF74F
:102B880015F906462F4B1B6813F4806F62D1FFF7C7
:102B98000DF9801B0228F5D90323FCE1294A1368A3
:102BA80043F4803313606FE703F18043A3F53C33AC
:102BB8001A6842F480221A601A6842F480321A6055
:102BC80062E7FFF7F3F807461E4B1B6813F4003F54
:102BD800C5D0FFF7EBF8C01B6428F5D90323DAE169
:102BE800022EC4D1174B1B6813F4806F03D0E3681F
:102BF800002B00F0CD81134A536823F0F853216964
:102C080043EA01635360236813F0080F56D06369E1
:102C1800002B3CD00B4AD2F8943043F00103C2F8A1
:102C28009430FFF7C3F80646064BD3F8943013F0F8
:102C3800020F43D1FFF7BAF8801B0228F4D9032307
:102C4800A9E100BF001002400C4D0008F803002065
:102C580000040020B84A536823F0F853216943EA76
:102C680001635360CFE7B44A136823F48073136099
:102C7800FFF79CF80646B04B1B6813F4806FC2D070
:102C8800FFF794F8801B0228F5D9032383E1AA4AA9
:102C9800D2F8943023F00103C2F89430FFF786F895
:102CA8000646A54BD3F8943013F0020F06D0FFF771
:102CB8007DF8801B0228F4D903236CE1236813F004
:102CC800040F7AD09C4B9B6D13F0805F0BD19A4B0D
:102CD8009A6D42F080529A659B6D03F08053019380
:102CE800019B012600E00026944B1B6813F4807FAB
:102CF80026D0A368012B37D0052B3DD08E4BD3F8B7
:102D0800902022F00102C3F89020D3F8902022F0FE
:102D18000402C3F89020A368002B3BD0FFF746F8C5
:102D28000746854BD3F8903013F0020F44D1FFF7D4
:102D38003DF8C01B41F288339842F2D903232AE1B7
:102D48007E4A136843F480731360FFF72FF8074631
:102D58007A4B1B6813F4807FCBD1FFF727F8C01B91
:102D68000228F5D9032316E1734AD2F8903043F0CC
:102D78000103C2F89030CEE76F4BD3F8902042F0B1
:102D88000402C3F89020D3F8902042F00102C3F85F
:102D98009020C0E7FFF70AF80746674BD3F8903052
:102DA80013F0020F08D0FFF701F8C01B41F2883377
:102DB8009842F2D90323EEE06EBBA36A002B00F021
:102DC800E980022B2DD00C2D00F0EE805A4B1A68AA
:102DD80022F080721A601B6813F0205F04D1564AF3
:102DE800D36823F00303D360534AD36823F088736E
:102DF80023F48033D360FEF7D9FF04464E4B1B689B
:102E080013F0007F00F0B980FEF7D0FF001B022806
:102E1800F4D90323BFE0484A936D23F080539365A8
:102E2800CBE7454BDB6803F00301E26A91420FD020
:102E38000C2D00F0B380404B1B6813F0806F40F0FE
:102E4800AF803D4B1B6813F0805F2DD00123A2E0BB
:102E580003F07002216B0139B2EB011FE8D103F4D2
:102E6800FE42616BB2EB012FE2D103F40031A26B99
:102E7800073A18BF01229142DAD103F4C001E26B8C
:102E88005208013AB1EB425FD2D103F0C063226C21
:102E98005208013AB3EB426FCAD1274B1B6813F0B3
:102EA800007F51D0002376E0234A136823F0807313
:102EB8001360FEF77BFF05461F4B1B6813F0007F6E
:102EC80006D0FEF773FF401B0228F5D9032362E002
:102ED800194AD3681A491940E36A206B013843EA52
:102EE8000013606B43EA0023E06B4008013843EAB3
:102EF8004053206C4008013843EA4063A06B000946
:102F080043EA40430B43D360136843F08073136074
:102F1800D36843F08073D360FEF748FF0446064B3E
:102F28001B6813F0007F0DD1FEF740FF001B02283D
:102F3800F5D903232FE000BF0010024000700040C5
:102F48008C809DF9002326E0184B1A6842F08072A5
:102F58001A60DA6842F08072DA60FEF727FF0446EA
:102F680004E0FEF723FF001B02281BD80F4B1B6849
:102F780013F0007FF5D000230DE000230BE00123C0
:102F880018467047012306E0012304E0012302E00C
:102F9800012300E00023184603B0F0BD0123FAE73F
:102FA8000123F8E70323F6E70123F4E700100240C2
:102FB800002800F09B8070B504464E4B1B6803F058
:102FC80007038B420CD24B4A136823F007030B43C9
:102FD8001360136803F007038B4201D0012070BD12
:102FE8000D46236813F0010F39D06368032B09D00D
:102FF800022B26D063BB404A126812F0020F06D19A
:103008000120ECE73C4A126812F0007F70D03A4980
:103018008A6822F0030213438B60FEF7C7FE064658
:10302800354B9B6803F00C036268B3EB820F16D034
:10303800FEF7BCFE801B41F288339842F0D903208A
:10304800CDE72D4A126812F4003FE0D10120C6E70F
:10305800294A126812F4806FD9D10120BFE723688A
:1030680013F0020F06D0244A936823F0F003A168F6
:103078000B4393601F4B1B6803F00703AB420CD94B
:103088001C4A136823F007032B431360136803F0EB
:103098000703AB4201D00120A1E7236813F0040F16
:1030A80006D0154A936823F4E063E1680B43936004
:1030B800236813F0080F07D00F4A936823F460536E
:1030C800216943EAC1039360FFF7FCFB0A4B9B6845
:1030D800C3F30313094AD35C03F01F03D840084B1A
:1030E8001860084B1868FEF71FFE78E70120704744
:1030F800012074E700200240001002400C4D000837
:10310800F803002000040020F8B55A4BDB6813F0E0
:10311800030F18D0574BDB6803F003030268934290
:1031280002D001252846F8BD002A00F0A080514BA6
:10313800DB68C3F3021301334268934201D00125CF
:10314800F0E700251AE00368022B59D0032B5ED064
:10315800012B01D001250FE0464A126812F0020F38
:1031680061D0444DEA6822F073024468013C43EAA6
:1031780004131343EB600025002DD3D10F460446FA
:103188003C4A136823F080631360FEF70FFE06467F
:10319800384B1B6813F0006F05D0FEF707FE801B45
:1031A8000228F5D90325002DBCD1002F3DD1314986
:1031B8000B6923F41F3323F44073A068E2681209F3
:1031C800520442EA002213430B612A4A136843F06F
:1031D80080631360FEF7EAFD0646264B1B6813F072
:1031E800006F05D1FEF7E2FD801B0228F5D9032503
:1031F800002D97D11F4A1369A1690B43136191E709
:103208001C4A126812F4806FABD10125B4E7194A41
:10321800126812F4003FA4D1164A126812F4802FE3
:103228009FD10125A8E70125A6E7012F0FD0114856
:10323800026922F0C06222F4FE42A16863695B0859
:10324800013B5B0643EA012313430361BDE70948D9
:10325800026922F4C00222F4FE42A16823695B08D5
:10326800013B5B0543EA012313430361ADE70125F5
:1032780058E700BF00100240F8B5514BDB6813F067
:10328800030F18D04E4BDB6803F003030268934228
:1032980002D001252846F8BD002A00F08E80484B50
:1032A800DB68C3F3021301334268934201D001255E
:1032B800F0E700251AE00368022B59D0032B5ED0F3
:1032C800012B01D001250FE03D4A126812F0020FD0
:1032D80061D03B4DEA6822F073024468013C43EA3E
:1032E80004131343EB600025002DD3D10F46044689
:1032F800334A136823F080531360FEF757FD0646E0
:103308002F4B1B6813F0005F05D0FEF74FFD801BA5
:103318000228F5D90325002DBCD1002F3DD128491D
:103328004B6923F41F3323F44073A068E268120941
:10333800520442EA002213434B61214A136843F0C6
:1033480080531360FEF732FD06461D4B1B6813F0D1
:10335800005F05D1FEF72AFD801B0228F5D9032559
:10336800002D97D1164A536961690B43536191E760
:10337800134A126812F4806FABD10125B4E7104AE2
:10338800126812F4003FA4D10D4A126812F4802F7B
:103398009FD10125A8E70125A6E70948426922F03F
:1033A800C06222F4FE42A16823695B08013B5B0608
:1033B80043EA012313434361BFE701256AE700BFDE
:1033C800001002402DE9F04182B00446036813F46E
:1033D800006F2FD0436EB3F5800F25D008D9B3F511
:1033E800000F10D0B3F5400F40F09980002610E090
:1033F800002B40F0948000210430FFF785FE06463C
:103408003EB1374618E05E4AD36843F48033D36050
:1034180000265B4AD2F8883023F44003616E0B43E0
:10342800C2F88830002707E000212030FFF724FF8A
:103438000646E5E700273E46236813F4805F15D06B
:10344800A36EB3F1807F7AD06CD9B3F1007F70D0CE
:10345800B3F1407F7AD1002E7BD1494AD2F8883027
:1034680023F04073A16E0B43C2F88830236813F42D
:10347800003F00F08E80424B9B6D13F0805F6AD155
:103488003F4B9A6D42F080529A659B6D03F08053D2
:103498000193019B4FF001083A4A136843F4807383
:1034A8001360FEF783FC0546364B1B6813F4807FD8
:1034B80005D1FEF77BFC401B0228F5D90326002E18
:1034C80062D12F4BD3F8903013F4407316D0D4F850
:1034D80084209A4212D02A4AD2F8903023F44073BA
:1034E800D2F8901041F48031C2F89010D2F89010C0
:1034F80021F48031C2F89010C2F8903013F0010F17
:103508002CD1002E40F043811D4AD2F8903023F48C
:103518004073D4F884100B43C2F8903035E001278B
:103528003E4689E793B90021201DFFF7EDFD0646C9
:1035380091E7134AD36843F48033D3608BE70021C3
:1035480004F12000FFF798FE064684E701273E466F
:103558008CE737468AE74FF000089DE7FEF726FC20
:103568000546074BD3F8903013F0020FC9D1FEF788
:103578001DFC401B41F288339842F2D90326C0E76C
:1035880000100240007000403746B8F1000F40F0CC
:103598000081236813F0010F08D09D4AD2F88830C3
:1035A80023F00303A16B0B43C2F88830236813F0A0
:1035B800020F08D0964AD2F8883023F00C03E16B4A
:1035C8000B43C2F88830236813F0040F08D0904AE0
:1035D800D2F8883023F03003216C0B43C2F88830CE
:1035E800236813F0080F08D0894AD2F8883023F0EE
:1035F800C003616C0B43C2F88830236813F0100FC6
:1036080008D0834AD2F8883023F44073A16C0B4366
:10361800C2F88830236813F0200F08D07C4AD2F80B
:10362800883023F44063E16C0B43C2F88830236888
:1036380013F4007F08D0764AD2F8883023F4402368
:10364800E16D0B43C2F88830236813F4806F08D00B
:103658006F4AD2F8883023F44013216E0B43C2F826
:103668008830236813F0400F08D0694AD2F88830B0
:1036780023F44053216D0B43C2F88830236813F0BC
:10368800800F08D0624AD2F8883023F44043616D35
:103698000B43C2F88830236813F4807F08D05C4A53
:1036A800D2F8883023F44033A16D0B43C2F8883038
:1036B800236813F4005F0FD0554AD2F8883023F0FE
:1036C8004063E16E0B43C2F88830E36EB3F1006FDC
:1036D80065D0B3F1806F67D0236813F4002F0FD043
:1036E8004B4AD2F8883023F04063216F0B43C2F86D
:1036F8008830236FB3F1006F5ED0B3F1806F60D074
:10370800236813F4802F0FD0414AD2F8883023F071
:103718004063616F0B43C2F88830636FB3F1006F89
:1037280057D0B3F1806F59D0236813F4804F0FD06E
:10373800374AD2F8883023F04053A16F0B43C2F8C0
:103748008830A36FB3F1805F50D0B3F1005F55D0DC
:10375800236813F4004F08D02D4AD2F8883023F09C
:103768008043E16F0B43C2F88830236813F4803F2D
:1037780009D0274AD2F8883023F00043D4F88010C3
:103788000B43C2F88830384602B0BDE8F0813746AE
:10379800FBE61F4A936D23F080539365F9E6D368DF
:1037A80043F48013D36097E70121201DFFF7ACFC99
:1037B800002891D007468FE7D36843F48013D3607D
:1037C8009EE70121201DFFF79FFC002898D007469F
:1037D80096E7D36843F48013D360A5E70121201D41
:1037E800FFF792FC00289FD007469DE70221201D85
:1037F800FFF78AFC0028ABD00746A9E7022104F1AD
:103808002000FFF739FD0028A2D00746A0E700BF37
:10381800001002402DE9F04383B004460F461646D7
:103828001D46FEF7C3FA0A9B181A00EB0508FEF7B7
:10383800BDFA81462A4B1B68C3F3CB3308FB03F35D
:10384800019323689B6837EA03030CBF0123002315
:10385800B34240D0B5F1FF3FF3D0FEF7A7FAA0EB93
:10386800090040450AD2B8F1000F07D0019B0BB9F7
:103878004FF00008019B013B0193E2E7226853687F
:1038880023F0E00353606368B3F5827F0BD0A36A2B
:10389800B3F5005F14D0012384F85D30002384F869
:1038A8005C30032018E0A368B3F5004F02D0B3F5ED
:1038B800806FECD12268136823F040031360E6E7B9
:1038C8002268136823F4005313602268136843F4D2
:1038D80000531360DFE7002003B0BDE8F08300BFAA
:1038E800F80300202DE9F04383B006460C46154640
:1038F8001F46FEF75BFA0A9B181A00EB0708FEF74B
:1039080055FA81462D4B1B6803EB8303C3EBC303B6
:103918001B0D08FB03F3019302E0B7F1FF3F0BD146
:10392800326893682340AB4244D0B4F5C06FF4D1F9
:10393800002DF2D1137BF0E7FEF738FAA0EB09006F
:1039480040450AD2B8F1000F07D0019B0BB94FF0E0
:103958000008019B013B0193E2E73268536823F0BA
:10396800E00353607368B3F5827F0BD0B36AB3F595
:10397800005F14D0012386F85D30002386F85C30A0
:10398800032018E0B368B3F5004F02D0B3F5806F99
:10399800ECD13268136823F040031360E6E732681D
:1039A800136823F4005313603268136843F4005318
:1039B8001360DFE7002003B0BDE8F083F8030020C0
:1039C80070B582B004460D46164600920B4600229A
:1039D8004FF4C051FFF786FFB8B900962B46002276
:1039E80080212046FFF716FFB8B900962B46002223
:1039F8004FF4C0612046FFF775FF034650B1236EB0
:103A080043F020032366032304E0236E43F02003DE
:103A180023660323184602B070BD236E43F02003CB
:103A280023660323F6E700286AD010B50446436AE4
:103A380033B94368B3F5827F05D00023C36102E040
:103A48000023036143610023A36294F85D30002BD7
:103A58004DD0022384F85D302268136823F04003B8
:103A68001360E368B3F5E06F47D90022B3F5706FD0
:103A780004D0B3F5E06F01D00023A362636803F4B8
:103A88008273A16801F404410B43216901F002012A
:103A98000B43616901F001010B43A16901F4007155
:103AA8000B43E16901F038010B43216A01F0800101
:103AB8000B43A16A01F4005120680B430360638B38
:103AC80003F00403616A01F010010B43616B01F01C
:103AD80008010B43E16801F470610B43216813434B
:103AE8004B6000202066012384F85D3010BD84F807
:103AF8005C302046FEF71EF8ABE74FF48052B5E77E
:103B0800012070472DE9F04182B090F85C40012C0B
:103B180000F0E9801E46154688460446012380F8D1
:103B28005C30FEF743F9074694F85D20D2B2012ACB
:103B380009D00220012384F85D30002384F85C302A
:103B480002B0BDE8F081B8F1000F00F0BE80002D92
:103B580000F0BD80032384F85D3000232366C4F899
:103B68003880A587E5872364A4F84430A4F8463054
:103B78002365E364A368B3F5004F1CD023681A6873
:103B880012F0400F03D11A6842F040021A60E3684D
:103B9800B3F5E06F38D963680BB1012D20D1A26B62
:103BA80023681288DA60A36B0233A363E38F013BB7
:103BB8009BB2E38714E02268136823F04003136084
:103BC8002268136843F480431360D7E7FEF7EEF8E2
:103BD800C01BB04202D3B6F1FF3F7AD1002E7AD093
:103BE800E38F9BB2002B5BD023689A6812F0020F18
:103BF800ECD0A26B1288DA60A36B0233A363E38F65
:103C0800013B9BB2E387EBE763680BB1012D30D131
:103C1800E38F9BB2012B0BD9A26B23681288DA6061
:103C2800A36B0233A363E38F023B9BB2E38720E0DD
:103C3800A26B236812781A73A36B0133A363E38F13
:103C4800013B9BB2E38714E0A36B1B781373A36B50
:103C58000133A363E38F013B9BB2E38709E0FEF7DF
:103C6800A5F8C01BB04202D3B6F1FF3F35D1002EF4
:103C780035D0E38F9BB29BB12268936813F0020F93
:103C8800EDD0E38F9BB2012BDED9A36B1B88D360E9
:103C9800A36B0233A363E38F023B9BB2E387E8E79E
:103CA8003A4631462046FFF78BFE08B120232366AB
:103CB800A36833B901932368DA6801929B6801937A
:103CC800019B236E6BB9002034E7012032E7012005
:103CD80030E703202EE703202CE703202AE7032000
:103CE80028E7012026E702202AE72DE9F843DDF836
:103CF800208090F85C40012C00F05C811D4617463E
:103D08000E460446012380F85C30FEF74FF88146E2
:103D180094F85D00C0B26368012814D0B3F5827FBF
:103D280009D00223012284F85D20002284F85C2057
:103D38001846BDE8F883A368002B40F02D810428BD
:103D480001D00223EEE7002E00F02881002F00F0BA
:103D58002781002D00F0268194F85D30DBB2042B1A
:103D680002D0052384F85D30002323662764A4F875
:103D78004650A4F84450A663E587A587E364236505
:103D8800E368B3F5E06F01D8012D22D922685368A2
:103D980023F48053536023681A6812F0400F03D14C
:103DA8001A6842F040021A60E368B3F5E06F56D92A
:103DB80063680BB1012D0AD1A26B23681288DA60FF
:103DC800A36B0233A363E38F013B9BB2E387012517
:103DD80025E02268536843F480535360DBE7236887
:103DE8009A6812F0010F10D0B4F8462092B262B16E
:103DF800DA68236C1A80236C02332364B4F84630E3
:103E0800013B9BB2A4F846300125FDF7CFFFA0EB9C
:103E18000900404503D3B8F1FF3F40F0C580E38F68
:103E28009BB22BB9B4F846309BB2002B00F0A780A8
:103E380023689A6812F0020FD1D0E28F92B2002A5A
:103E4800CDD0002DCBD0A26B1288DA60A36B0233E1
:103E5800A363E38F013B9BB2E3870025BFE7636859
:103E68000BB1012D0ED1E38F9BB2012B0CD9A26BA4
:103E780023681288DA60A36B0233A363E38F023BE3
:103E88009BB2E387012547E0A26B236812781A7377
:103E9800A36B0133A363E38F013B9BB2E387F1E795
:103EA800E28F92B2012A0BD9A26B1288DA60A36B57
:103EB8000233A363E38F023B9BB2E38700253CE018
:103EC800A26B12781A73A36B0133A363E38F013BD0
:103ED8009BB2E387002530E02268536843F480539F
:103EE800536001250CE0226C1B7B1370236C01339B
:103EF8002364B4F84630013B9BB2A4F84630012550
:103F0800FDF754FFA0EB0900404502D3B8F1FF3F8D
:103F18004CD1B8F1000F4BD0E38F9BB21BB9B4F86A
:103F280046309BB25BB323689A6812F0020F04D044
:103F3800E28F92B20AB1002DB2D123689A6812F0CA
:103F4800010FDDD0B4F8462092B2002AD8D0B4F8D8
:103F5800462092B2012AC6D9DA68236C1A80236CEB
:103F680002332364B4F84630023B9BB2A4F84630CF
:103F7800B4F846309BB2012BAED90125C0E74A46BA
:103F880041462046FFF71CFD034600283FF4CAAE11
:103F9800202323660123C5E60223C3E60123C1E6E5
:103FA8000123BFE60123BDE60323BBE60323B9E6ED
:103FB8000323B7E60223BBE630B4036A23F0010308
:103FC8000362036A4468826922F4803222F0730231
:103FD8000D682A4323F002038D682B431C4DA84229
:103FE8000FD005F50065A8420BD005F54065A8423D
:103FF80007D005F58065A84203D005F58065A8427D
:1040080005D123F00803CD682B4323F00403104D9A
:10401800A8420FD005F50065A8420BD005F540650C
:10402800A84207D005F58065A84203D005F580654C
:10403800A84205D124F440754C692C438D692C4362
:10404800446082614A684263036230BC704700BFC3
:10405800002C014030B4036A23F480730362036ABE
:104068004468C26922F4803222F073020D682A4340
:1040780023F400738D6843EA0523184DA84203D042
:1040880005F50065A84206D123F40063CD6843EA2C
:10409800052323F48063114DA8420FD005F5006570
:1040A800A8420BD005F54065A84207D005F5806504
:1040B800A84203D005F58065A84207D124F44054EE
:1040C8004D6944EA05148D6944EA05144460C261E7
:1040D8004A68C263036230BC704700BF002C0140CD
:1040E80030B4036A23F480530362036A4468C269E4
:1040F80022F0807222F4E6420D6842EA052223F497
:1041080000538D6843EA05330F4DA8420FD005F5DB
:104118000065A8420BD005F54065A84207D005F513
:104128008065A84203D005F58065A84204D124F42F
:1041380080444D6944EA85144460C2614A68026457
:10414800036230BC704700BF002C014030B4036AE2
:1041580023F480330362036A4468426D22F4803298
:1041680022F070020D682A4323F400338D6843EA75
:1041780005430F4DA8420FD005F50065A8420BD0A6
:1041880005F54065A84207D005F58065A84203D02B
:1041980005F58065A84204D124F480344D6944EAC9
:1041A8000524446042654A688265036230BC7047F2
:1041B800002C014030B4036A23F480130362036ABD
:1041C8004468426D22F0807222F4E0420D6842EAAF
:1041D800052223F400138D6843EA05530F4DA842C6
:1041E8000FD005F50065A8420BD005F54065A8423B
:1041F80007D005F58065A84203D005F58065A8427B
:1042080004D124F480244D6944EA8524446042653D
:104218004A68C265036230BC704700BF002C014089
:1042280090F83D30DBB2012B01D00120704702230A
:1042380080F83D300268D36843F00103D360036817
:10424800184A93421CD0B3F1804F19D0A2F594328A
:10425800934215D002F58062934211D002F5806234
:1042680093420DD002F59432934209D002F5406290
:10427800934205D01A6842F001021A600020704784
:104288009968094A0A40062A08D0B2F5803F07D043
:104298001A6842F001021A60002070470020704737
:1042A80000207047002C014007000100704770474C
:1042B80070477047704710B5044603681A6912F0D2
:1042C800020F11D0DA6812F0020F0DD06FF002025F
:1042D8001A610123037703689B6913F0030F79D0F0
:1042E800FFF7E6FF0023237723681A6912F0040F0B
:1042F80012D0DA6812F0040F0ED06FF004021A61BF
:104308000223237723689B6913F4407F68D02046F3
:10431800FFF7CEFF0023237723681A6912F0080FEE
:1043280012D0DA6812F0080F0ED06FF008021A6186
:10433800042323772368DB6913F0030F57D0204643
:10434800FFF7B6FF0023237723681A6912F0100FCE
:1043580012D0DA6812F0100F0ED06FF010021A6146
:10436800082323772368DB6913F4407F46D020466F
:10437800FFF79EFF0023237723681A6912F0010FC5
:1043880003D0DA6812F0010F3FD123681A6912F0DE
:10439800800F03D0DA6812F0800F3DD123681A69C4
:1043A80012F4807F03D0DA6812F0800F3BD12368C3
:1043B8001A6912F0400F03D0DA6812F0400F39D1B1
:1043C80023681A6912F0200F03D0DA6812F0200F60
:1043D80037D110BDFFF76BFF2046FFF76AFF81E773
:1043E8002046FFF764FF2046FFF763FF92E7204669
:1043F800FFF75DFF2046FFF75CFFA3E72046FFF7C6
:1044080056FF2046FFF755FFB4E76FF001021A6127
:104418002046FFF74BFFB8E76FF080021A6120468D
:1044280000F00FFBBAE76FF480721A61204600F0C3
:1044380009FBBCE76FF040021A612046FFF73AFF1C
:10444800BEE76FF020021A61204600F0F9FAC0E7D3
:104458000368304A904212D0B0F1804F0FD0A2F5D5
:10446800943290420BD002F58062904207D002F558
:104478008062904203D002F59432904203D123F037
:1044880070034A681343234A90421ED0B0F1804F0C
:104498001BD0A2F59432904217D002F58062904268
:1044A80013D002F5806290420FD002F59432904208
:1044B8000BD002F54062904207D002F5806290422C
:1044C80003D002F58062904203D123F44073CA6896
:1044D800134323F080034A69134303608B68C36264
:1044E8000B6883620B4B98420FD003F50063984228
:1044F8000BD003F54063984207D003F580639842D8
:1045080003D003F58063984201D10B69036301234B
:1045180043617047002C014058B310B5044690F829
:104528003D300BB3022384F83D30211D2068FFF78E
:104538008FFF012384F8483084F83E3084F83F30F8
:1045480084F8403084F8413084F8423084F84330AD
:1045580084F8443084F8453084F8463084F847308D
:1045680084F83D30002010BD80F83C30FDF718FB82
:10457800D8E70120704758B310B5044690F83D308D
:104588000BB3022384F83D30211D2068FFF760FF3C
:10459800012384F8483084F83E3084F83F3084F8AA
:1045A800403084F8413084F8423084F8433084F84D
:1045B800443084F8453084F8463084F8473084F82D
:1045C8003D30002010BD80F83C30FDF709FBD8E7EE
:1045D8000120704730B4036A23F010030362036AB2
:1045E8004468826922F0807222F4E6420D6842EA49
:1045F800052223F020038D6843EA0513174DA842CE
:1046080003D005F50065A84206D123F08003CD68E4
:1046180043EA051323F04003104DA8420FD005F5D7
:104628000065A8420BD005F54065A84207D005F5FE
:104638008065A84203D005F58065A84207D124F417
:1046480040644D6944EA85048D6944EA8504446000
:1046580082614A688263036230BC7047002C014063
:1046680038B590F83C30012B00F08C800D4604469C
:10467800012380F83C30142A1ED8DFE802F00B1D15
:104688001D1D211D1D1D351D1D1D481D1D1D5C1DCC
:104698001D1D6F000068FFF78FFC2268936943F0C7
:1046A800080393612268936923F0040393612268E5
:1046B800936929690B439361002084F83C0038BD55
:1046C8000068FFF787FF2268936943F400639361EA
:1046D8002268936923F48063936122689369296946
:1046E80043EA01239361E7E70068FFF7B3FC226818
:1046F800D36943F00803D3612268D36923F0040324
:10470800D3612268D36929690B43D361D4E7006870
:10471800FFF7E6FC2268D36943F40063D36122689B
:10472800D36923F48063D3612268D369296943EA92
:104738000123D361C0E70068FFF708FD2268536DC5
:1047480043F0080353652268536D23F0040353654F
:104758002268536D29690B435365ADE70068FFF77D
:1047680029FD2268536D43F4006353652268536D35
:1047780023F4806353652268536D296943EA012352
:10478800536599E702209AE710B401F01F0101234D
:1047980003FA01F4036A23EA04030362036A8A4002
:1047A800134303625DF8044B704700000A46002972
:1047B8004ED190F83E30DBB213F1FF3318BF01231E
:1047C800002B40F09F8010B5002A71D1022380F899
:1047D8003E301146044601220068FFF7D5FF2368E2
:1047E8004B4A93420FD002F5006293420BD002F578
:1047F8004062934207D002F58062934203D002F5EB
:104808008062934203D15A6C42F400425A6423688E
:104818003F4A934268D0B3F1804F65D0A2F59432F5
:10482800934261D002F5806293425DD002F58062C6
:10483800934259D002F59432934255D002F5406222
:10484800934251D01A6842F001021A60002058E0E1
:1048580004290DD0082913D00C2919D010291FD0EC
:1048680090F84330DBB213F1FF3318BF0123A7E7F9
:1048780090F83F30DBB213F1FF3318BF01239FE7F5
:1048880090F84030DBB213F1FF3318BF012397E7EC
:1048980090F84130DBB213F1FF3318BF01238FE7E3
:1048A80090F84230DBB213F1FF3318BF012387E7DA
:1048B800042A09D0082A0BD00C2A0DD0102A0FD0B0
:1048C800022380F8433084E7022380F83F3080E7F2
:1048D800022380F840307CE7022380F8413078E7F3
:1048E800022380F8423074E799680A4A0A40062A87
:1048F8000AD0B2F5803F09D01A6842F001021A6066
:10490800002010BD012070470020FAE70020F8E7DA
:10491800002C01400700010090F83C30012B42D0E8
:1049280030B4012380F83C30022380F83D3002681F
:10493800536895681D4CA24203D004F50064A24256
:1049480003D123F470034C68234323F070030C68ED
:10495800234353600368154A934216D0B3F1804F3E
:1049680013D0A2F5943293420FD002F5806293429D
:104978000BD002F58062934207D002F5943293423D
:1049880003D002F54062934204D125F080058A687D
:1049980015439D60012380F83D30002380F83C30AA
:1049A800184630BC70470220704700BF002C0140F9
:1049B80090F83C30012B3ED010B4012380F83C30F5
:1049C800CB6823F440738A68134323F480634A68EE
:1049D800134323F400630A68134323F480530A69DA
:1049E800134323F400534A69134323F480438A6A28
:1049F800134323F470238A6943EA024302680F4C85
:104A0800A24203D004F50064A2420CD123F470033F
:104A18004C6A43EA045323F08073CC69234323F0A0
:104A28000073096A0B435364002380F83C3018462E
:104A38005DF8044B70470220704700BF002C01400E
:104A48007047704770470000DFF834D0FDF748F929
:104A5800002103E00B4B5B58435004310A480B4BD1
:104A680042189A42F6D30A4A02E0002342F8043B6D
:104A7800084B9A42F9D300F017F8FCF7CDFAFEE795
:104A880000800120384D0008000000206804002044
:104A9800680400207C070020FEE70000014B18682E
:104AA800704700BF0404002070B50D4E0D4CA41BC8
:104AB800A4100025A54209D10B4E0C4C00F0F6F8C5
:104AC800A41BA4100025A54205D170BD56F82530B9
:104AD80098470135EEE756F8253098470135F2E753
:104AE800284D0008284D0008284D00082C4D0008C6
:104AF800024B0146186800F06DB800BF040400209E
:104B0800024B0146186800F017B800BF04040020E3
:104B180010B5431E0A44914200D110BD11F8014B53
:104B280003F8014FF7E702440346934200D1704768
:104B380003F8011BF9E7000038B50546002945D000
:104B480051F8043C0C1F002BB8BFE41800F0ACF877
:104B58001F4A1368104633B9636014602846BDE8DD
:104B6800384000F0A2B8A3420CD9216862189342D9
:104B780004BF1A685B68636004BF5218226004604F
:104B8800ECE713465A680AB1A242FAD919685818CC
:104B9800A0420BD120680144581882421960DDD127
:104BA800106852685A6001441960D7E702D90C238B
:104BB8002B60D3E7206821188A4204BF1168526825
:104BC800626004BF091821605C60C7E738BD00BF98
:104BD800B404002070B5CD1C25F0030508350C2D54
:104BE80038BF0C25002D064601DBA94203D90C234A
:104BF8003360002070BD00F057F8214A1468214640
:104C080091B9204C23681BB9304600F03DF820606C
:104C18002946304600F038F8431C24D10C23336071
:104C2800304600F042F8E4E70B685B1B18D40B2B06
:104C38000FD90B60CD50CC18304600F036F804F18F
:104C48000B00231D20F00700C31AD3D05A42E250AC
:104C5800D0E78C424B6816BF636013600C46EBE7E5
:104C68000C464968CCE7C41C24F00304A04205D0D4
:104C7800211A304600F008F80130CFD02560DBE774
:104C8800B4040020B804002038B5064C00230546BB
:104C980008462360FDF706F8431C02D1236803B1D8
:104CA8002B6038BD7807002070477047F8B500BF03
:104CB800F8BC08BC9E467047F8B500BFF8BC08BCF5
:084CC8009E4670470000000049
:104CD000102000002081000010100000A0860100BC
:104CE000400D0300801A060000350C0040420F0002
:104CF00080841E0000093D0000127A000024F400A8
:104D000000366E010048E801006CDC020000000083
:104D1000000000000102030406070809000000006B
:084D2000010203040000000081
:084D2800AD01000800000000CD
:084D30008901000800000000E9
:104D380053544D3332546F54616E676C65000000F4
:104D48000183FCFF00400640060100FF0900000047
:104D5800040E040183FC0000040504000102FD1395
:104D680002000000000000010000000000005005E3
:104D780000010900040E060102FD00000104FD1AED
:104D8800FFFF020100000000000100000000000019
:104D9800500500100002000010010000040E06017A
:104DA80004FD00000106FD09FFFFFFFF01010101ED
:104DB8000101010004FF030100010000040E0401C9
:104DC80001FD00000101FD00040E0A018AFC00003B
:104DD800018AFC0301000D00040E040186FC00009A
:104DE8000186FC0C00000100071000000000000014
:104DF800040E04010FFC0000010FFC020104000076
:104E0800040E040109200000010920200000000010
:104E1800000000000000000000000000000000008A
:104E2800000000000000000000000000000000007A
:104E38000000010000000000005005000000000014
:104E48000000010000000000005005007B224E61B8
:104E58006D65223A22456E7669726F6E6D656E7465
:104E6800227D000002000000000001000000000098
:104E7800005005007B2254656D70223A222B303099
:104E8800302E30227D0000000300000000000100E9
:104E980000000000005005007B2248756D223A2270
:104EA8002B3030302E30227D04000000000001003D
:104EB80000000000005005007B22507265737322C9
:104EC8003A222B3030302E30227D000005000000C1
:104ED8000000010000000000005005007B2244692A
:104EE8007374616E6365223A222B30303030227D34
:104EF8000000000000000200000000000050050053
:104F08000000000000000200000000000050050042
:104F18007B224E616D65223A22416363656C65723E
:104F28006F6D65746572227D01000000000002004B
:104F380000000000005005007B2241786973582268
:104F48003A222B30303030227D0000000200000071
:104F58000000020000000000005005007B2241789C
:104F6800697359223A222B30303030227D000000FC
:104F780003000000000002000000000000500500CF
:104F88007B22417869735A223A222B303030302202
:104F98007D00000000000000000003000000000089
:104FA80000500500000000000000030000000000A1
:104FB800005005007B224E616D65223A224D6167E3
:104FC8006E65746F6D65746572227D000100000066
:104FD8000000030000000000005005007B2241781B
:104FE800697358223A222B30303030227D0000007D
:104FF800020000000000030000000000005005004F
:105008007B224178697359223A222B303030302282
:105018007D00000003000000000003000000000005
:10502800005005007B22417869735A223A222B30BE
:10503800303030227D0000007B224E616D65223ABF
:105048002254696D654F66466C69676874227D00F5
:1050580000000000000005000000000000500500EE
:1050680000000000000005000000000000500500DE
:1050780003000000000004000000000000500500CC
:1050880002000000000004000000000000500500BD
:1050980001000000000004000000000000500500AE
:1050A8007B224E616D65223A224779726F73636F76
:1050B8007065227D00000000000004000000000070
:1050C800005005000000000000000400000000007F
:1050D800005005007B224D6963726F70686F6E65C2
:1050E800223A222B30303030227D00007B224D695D
:1050F80063726F70686F6E65223A222B30303030E1
:10510800227D0000010000000000010000000000F6
:1051180000500500040E040106FD00000106FDFF15
:10512800FFFFFFFFFFFF000000093D000100000036
:10513800100000000804002000000000000000002B
:105148000000000000000000000000000000000057
:105158000000000000000000000000000000000047
:105168000000000000000000000000000000000037
:105178000000000000000000000000000000000027
:105188000000000000000000000000000000000017
:0851980000000000000000000F
:0400000508004A5154
:00000001FF
