:020000040800F2
:1000000000800120913F00086D1800086F1800085B
:100010007118000873180008751800080000000027
:100020000000000000000000000000007718000839
:1000300079180008000000007B1800087D180008EF
:10004000E13F0008E13F0008E13F0008E13F000810
:10005000E13F0008E13F0008E13F00088518000883
:10006000E13F0008E13F0008E13F0008E13F0008F0
:10007000E13F0008E13F0008E13F0008E13F0008E0
:10008000E13F0008E13F0008E13F0008E13F0008D0
:10009000E13F0008E13F0008E13F0008E13F0008C0
:1000A000E13F0008E13F0008E13F0008E13F0008B0
:1000B000E13F0008E13F0008E13F0008E13F0008A0
:1000C000E13F0008E13F0008E13F0008E13F000890
:1000D000E13F0008E13F0008E13F0008E13F000880
:1000E000E13F0008E13F0008E13F0008E13F000870
:1000F000E13F0008E13F0008E13F0008E13F000860
:10010000E13F0008E13F0008E13F0008E13F00084F
:10011000E13F0008E13F0008E13F0008E13F00083F
:10012000E13F0008E13F0008E13F0008E13F00082F
:10013000E13F0008E13F0008E13F0008E13F00081F
:10014000E13F0008E13F0008E13F0008E13F00080F
:10015000E13F0008E13F0008E13F0008E13F0008FF
:10016000E13F0008E13F0008E13F0008E13F0008EF
:10017000E13F0008E13F000800000000000000002F
:08018000E13F0008E13F000827
:1001900010B5054C237833B9044B13B10448AFF3C1
:1001A00000800123237010BDE80100200000000042
:1001B000E460000808B5034B1BB103490348AFF3E3
:1001C000008008BD00000000EC010020E460000891
:1001D00081F0004102E000BF83F0004330B54FEAF8
:1001E00041044FEA430594EA050F08BF90EA020F65
:1001F0001FBF54EA000C55EA020C7FEA645C7FEAF8
:10020000655C00F0E2804FEA5454D4EB5555B8BF1A
:100210006D420CDD2C4480EA020281EA030382EA8B
:10022000000083EA010180EA020281EA0303362D1D
:1002300088BF30BD11F0004F4FEA01314FF4801CF0
:100240004CEA113102D0404261EB410113F0004F02
:100250004FEA03334CEA133302D0524263EB4303B9
:1002600094EA050F00F0A780A4F10104D5F1200E57
:100270000DDB02FA0EFC22FA05F2801841F10001B2
:1002800003FA0EF2801843FA05F359410EE0A5F186
:1002900020050EF1200E012A03FA0EFC28BF4CF0B7
:1002A000020C43FA05F3C01851EBE37101F000456D
:1002B00007D54FF0000EDCF1000C7EEB00006EEB7A
:1002C0000101B1F5801F1BD3B1F5001F0CD3490804
:1002D0005FEA30004FEA3C0C04F101044FEA44525B
:1002E00012F5800F80F09A80BCF1004F08BF5FEAE2
:1002F000500C50F1000041EB045141EA050130BDC2
:100300005FEA4C0C404141EB010111F4801FA4F164
:100310000104E9D191F0000F04BF01460020B1FAB9
:1003200081F308BF2033A3F10B03B3F120020CDAF1
:100330000C3208DD02F1140CC2F10C0201FA0CF0CF
:1003400021FA02F10CE002F11402D8BFC2F1200C34
:1003500001FA02F120FA0CFCDCBF41EA0C019040EA
:10036000E41AA2BF01EB0451294330BD6FEA040433
:100370001F3C1CDA0C340EDC04F11404C4F120021E
:1003800020FA04F001FA02F340EA030021FA04F330
:1003900045EA030130BDC4F10C04C4F1200220FA87
:1003A00002F001FA04F340EA0300294630BD21FAC5
:1003B00004F0294630BD94F0000F83F4801306BF8B
:1003C00081F480110134013D4EE77FEA645C18BF7F
:1003D0007FEA655C29D094EA050F08BF90EA020F16
:1003E00005D054EA000C04BF1946104630BD91EA0E
:1003F000030F1EBF0021002030BD5FEA545C05D111
:100400004000494128BF41F0004130BD14F580044F
:100410003CBF01F5801130BD01F0004545F0FE41C3
:1004200041F470014FF0000030BD7FEA645C1ABFF8
:10043000194610467FEA655C1CBF0B46024650EA2F
:10044000013406BF52EA033591EA030F41F400215B
:1004500030BD00BF90F0000F04BF0021704730B5E1
:100460004FF4806404F132044FF000054FF00001B6
:1004700050E700BF90F0000F04BF0021704730B577
:100480004FF4806404F1320410F0004548BF40424C
:100490004FF000013EE700BF42004FEAE2014FEAA1
:1004A00031014FEA02701FBF12F07F4393F07F4F7C
:1004B00081F06051704732F07F4208BF704793F07F
:1004C0007F4F04BF41F40021704730B54FF4607492
:1004D00001F0004521F000411CE700BF50EA010295
:1004E00008BF704730B54FF000050AE050EA01023E
:1004F00008BF704730B511F0004502D5404261EBAE
:1005000041014FF4806404F132045FEA915C3FF4EE
:10051000D8AE4FF003025FEADC0C18BF03325FEA8B
:10052000DC0C18BF033202EBDC02C2F1200300FA3C
:1005300003FC20FA02F001FA03FE40EA0E0021FA61
:1005400002F11444BDE600BF034613F8012B002A54
:10055000FBD1181A013870470000000000000000AD
:1005600001F0FF01102A2BDB10F0070F08D010F864
:10057000013B013A8B422DD010F0070F42B3F6D168
:10058000F0B441EA012141EA014122F007047FF081
:1005900000070023F0E80256083C85EA010586EAD8
:1005A000010685FA47F5A3FA87F586FA47F6A5FA14
:1005B00087F68EB9EED1F0BC01F0FF0102F0070220
:1005C00032B110F8013B013A83EA010313B1F8D1CB
:1005D0000020704701387047002D06BF35460338AC
:1005E000073815F0010F07D1013015F4807F02BFE5
:1005F000013015F4C03F0130F0BC0138704700BF36
:1006000070B54FF0FF0C4CF4E06C1CEA11541DBFA8
:100610001CEA135594EA0C0F95EA0C0F00F0DEF873
:100620002C4481EA030621EA4C5123EA4C5350EA58
:10063000013518BF52EA033541F4801143F48013A9
:1006400038D0A0FB02CE4FF00005E1FB02E506F03A
:100650000042E0FB03E54FF00006E1FB03569CF08F
:10066000000F18BF4EF0010EA4F1FF04B6F5007F95
:1006700064F5407404D25FEA4E0E6D4146EB060607
:1006800042EAC62141EA55514FEAC52040EA5E5090
:100690004FEACE2EB4F1FD0C88BFBCF5E06F1ED83A
:1006A000BEF1004F08BF5FEA500E50F1000041EB71
:1006B000045170BD06F0004646EA010140EA02001E
:1006C00081EA0301B4EB5C04C2BFD4EB0C0541EA40
:1006D000045170BD41F480114FF0000E013C00F355
:1006E000AB8014F1360FDEBF002001F0004170BD79
:1006F000C4F10004203C35DA0C341BDC04F1140492
:10070000C4F1200500FA05F320FA04F001FA05F21D
:1007100040EA020001F0004221F0004110EBD370EA
:1007200021FA04F642EB06015EEA430E08BF20EA16
:10073000D37070BDC4F10C04C4F1200500FA04F3B9
:1007400020FA05F001FA04F240EA020001F000414B
:1007500010EBD37041F100015EEA430E08BF20EABE
:10076000D37070BDC4F1200500FA05F24EEA020E06
:1007700020FA04F301FA05F243EA020321FA04F035
:1007800001F0004121FA04F220EA020000EBD370EC
:100790005EEA430E08BF20EAD37070BD94F0000FEC
:1007A0000FD101F00046400041EB010111F4801F20
:1007B00008BF013CF7D041EA060195F0000F18BFD1
:1007C000704703F00046520043EB030313F4801F0D
:1007D00008BF013DF7D043EA0603704794EA0C0FC7
:1007E0000CEA135518BF95EA0C0F0CD050EA4106DD
:1007F00018BF52EA4306D1D181EA030101F000415A
:100800004FF0000070BD50EA410606BF1046194681
:1008100052EA430619D094EA0C0F02D150EA01368D
:1008200013D195EA0C0F05D152EA03361CBF1046CE
:1008300019460AD181EA030101F0004141F0FE416D
:1008400041F470014FF0000070BD41F0FE4141F4F1
:10085000780170BD70B54FF0FF0C4CF4E06C1CEAF1
:1008600011541DBF1CEA135594EA0C0F95EA0C0FA6
:1008700000F0A7F8A4EB050481EA030E52EA033561
:100880004FEA013100F088804FEA03334FF0805582
:1008900045EA131343EA12634FEA022245EA1115AF
:1008A00045EA10654FEA00260EF000419D4208BF60
:1008B000964244F1FD0404F5407402D25B084FEA0D
:1008C0003202B61A65EB03055B084FEA32024FF4B9
:1008D00080104FF4002CB6EB020E75EB030E22BF16
:1008E000B61A754640EA0C005B084FEA3202B6EBD6
:1008F000020E75EB030E22BFB61A754640EA5C0085
:100900005B084FEA3202B6EB020E75EB030E22BF14
:10091000B61A754640EA9C005B084FEA3202B6EB15
:10092000020E75EB030E22BFB61A754640EADC00D4
:1009300055EA060E18D04FEA051545EA16754FEA36
:1009400006164FEAC30343EA52734FEAC2025FEA54
:100950001C1CC0D111F4801F0BD141EA00014FF0E3
:1009600000004FF0004CB6E711F4801F04BF0143B4
:100970000020B4F1FD0C88BFBCF5E06F3FF6AFAED0
:10098000B5EB030C04BFB6EB020C5FEA500C50F160
:10099000000041EB045170BD0EF0004E4EEA1131E3
:1009A00014EB5C04C2BFD4EB0C0541EA045170BDEA
:1009B00041F480114FF0000E013C90E645EA060E2E
:1009C0008DE60CEA135594EA0C0F08BF95EA0C0F5C
:1009D0003FF43BAF94EA0C0F0AD150EA01347FF4A4
:1009E00034AF95EA0C0F7FF425AF104619462CE77B
:1009F00095EA0C0F06D152EA03353FF4FDAE1046DE
:100A0000194622E750EA410618BF52EA43067FF42E
:100A1000C5AE50EA41047FF40DAF52EA43057FF4BE
:100A2000EBAE12E74FF0FF3C06E000BF4FF0010CC9
:100A300002E000BF4FF0010C4DF804CD4FEA410C2D
:100A40007FEA6C5C4FEA430C18BF7FEA6C5C1BD0FA
:100A500001B050EA410C0CBF52EA430C91EA030F7B
:100A600002BF90EA020F0020704710F1000F91EAD8
:100A7000030F58BF994208BF90422CBFD8176FEAA6
:100A8000E37040F0010070474FEA410C7FEA6C5C74
:100A900002D150EA013C07D14FEA430C7FEA6C5C7B
:100AA000D6D152EA033CD3D05DF8040B704700BFA7
:100AB0008446104662468C461946634600E000BFF5
:100AC00001B5FFF7B7FF002848BF10F1000F01BDC7
:100AD0004DF808EDFFF7F4FF0CBF012000205DF892
:100AE00008FB00BF4DF808EDFFF7EAFF34BF012017
:100AF00000205DF808FB00BF4DF808EDFFF7E0FFB0
:100B000094BF012000205DF808FB00BF4DF808ED00
:100B1000FFF7CEFF94BF012000205DF808FB00BF67
:100B20004DF808EDFFF7C4FF34BF012000205DF849
:100B300008FB00BF4FEA410C7FEA6C5C02D150EA2F
:100B4000013C0AD14FEA430C7FEA6C5C02D152EAC5
:100B5000033C02D14FF0000070474FF00100704796
:100B60004FEA410212F5001215D211D56FF47873D5
:100B7000B3EB625212D94FEAC12343F0004343EA78
:100B8000505311F0004F23FA02F018BF4042704753
:100B90004FF00000704750EA013005D111F00040DD
:100BA00008BF6FF0004070474FF00000704700BF73
:100BB0002DE9F04188B00024039404940594069430
:100BC00007942E4BDA6C42F01002DA64DA6C02F011
:100BD00010020092009ADA6C42F00202DA64DA6CD7
:100BE00002F002020192019ADA6C42F00402DA6425
:100BF000DB6C03F004030293029B214E012240F2BE
:100C00000111304601F01FFBDFF87C8022464FF4D3
:100C10001071404601F017FB4FF4807303930125D8
:100C2000049505950227069703A9304601F020FA9E
:100C30004FF41073039304950594069403A940465A
:100C400001F016FA039504950594069403A930461D
:100C500001F00EFA03970B4B0493059403A9304659
:100C600001F006FA22462146072001F0A9F90720E3
:100C700001F0DAF908B0BDE8F08100BF00100240D1
:100C800000100048000011100008004872B6FEE78E
:100C900008B50F480F4B03604FF482734360002385
:100CA00083604FF4E062C260036143614FF40072FD
:100CB0008261C3610362436283620722C26203638B
:100CC0000823436302F08DFF00B908BDFFF7DEFF84
:100CD0009C020020003C004008B51148114B036005
:100CE00040F614634360002383600122C260036105
:100CF00043618361C361036201F0F6FB50B90021D7
:100D0000074801F0CBFD38B90021054801F0F4FD9A
:100D100020B908BDFFF7BAFFFFF7B8FFFFF7B6FF2E
:100D2000500200200058004000B5B9B04022002118
:100D300028A803F08CF90021229123912491259178
:100D400026918822684603F082F910232793012315
:100D50002D9360232F9327A801F0ECFED0B90F2329
:100D600022930021239124912591269122A802F01B
:100D7000FDF988B98023009300231593684602F09B
:100D8000FFFB58B94FF4007001F0EAFD40B939B0EB
:100D90005DF804FBFFF77AFFFFF778FFFFF776FFB8
:100DA000FFF774FF70B588B001F0C2F8FFF7BCFF21
:100DB000FFF7FEFEFFF76CFFFFF78EFF454C0022AA
:100DC0004FF48071204601F03EFA4FF47A7001F042
:100DD000D1F801224FF48071204601F034FA00F07E
:100DE000AFFD0028FBD001F051F8012240213A4824
:100DF00001F029FA00F0E0FA012001F0BBF800F060
:100E0000EFF8012001F0B6F800F01EFB00F0E2FB65
:100E10000023049300F078F804A800F0E1FA0DF143
:100E20001A0207A90DF11E0000F024FB05AA0DF11E
:100E3000160106A800F0E4FB02A800F031FA03A8AE
:100E400000F074FA01A800F075F800F0B5FA234834
:100E500000F064FE224EBDF91E10304600F0BCFECC
:100E6000204DBDF91C10284600F0B6FE1E4CBDF901
:100E70001A10204600F0B0FE1C4800F04FFEBDF9ED
:100E80001810304600F0A8FEBDF91610284600F0F4
:100E9000A3FEBDF91410204600F09EFE144800F099
:100EA0003DFE9DED020A134800F0F2FE9DED030A9F
:100EB000114800F0EDFE9DED010A104800F0E8FE3B
:100EC0000F4800F02BFE04990E4800F085FE00F05C
:100ED00043FFA1E7001000480008004854610008E3
:100EE00064610008686100086C61000870610008B6
:100EF00080610008906100089C610008A8610008FA
:100F0000B4610008C461000800B585B0074B1B88B8
:100F100004AA22F8043D012300930223BA210448C5
:100F200001F040FB05B05DF804FB00BF0061000864
:100F300050020020F0B587B0074628238DF8143002
:100F400029238DF810302A238DF80C30224D0126EC
:100F50000096022305AABA21284601F023FB009639
:100F6000022302AABB21284601F01CFB9DF8084081
:100F70000096022304AABA21284601F013FB00962A
:100F8000022302AABB21284601F00CFB9DF8083081
:100F900044EA03240096022303AABA21284601F05A
:100FA00001FB0096022302AABB21284601F0FAFAAF
:100FB0009DF8083044EA0343B3F5000F00DB5B42C1
:100FC00007EE903AF8EEE77A9FED047A67EE877ABB
:100FD000C7ED007A07B0F0BD500200200000803954
:100FE00070B58EB0AB4B9B880EAA22F8043DAA4E7A
:100FF000012400940223BE21304601F0D3FA3223AB
:101000008DF82C3033238DF82830009423460BAA1A
:10101000BE21304601F0C6FA009423460CAABF2137
:10102000304601F07DFB9DF830309C4D2B600094E4
:1010300023460AAABE21304601F0B4FA00942346A2
:101040000CAABF21304601F06BFB9DF830306B607D
:101050000EAA352302F8143D00942346BE213046E3
:1010600001F0A0FA009423460CAABF21304601F0FB
:1010700057FB9DF830301A0202F4407229680A4387
:101080009B101B0203F4407369680B43D2102A6063
:10109000DB106B603C238DF820303D238DF81C3035
:1010A0000094234608AABE21304601F07BFA009442
:1010B00023460CAABF21304601F032FB9DF83030A8
:1010C0002B810094234607AABE21304601F06AFA1C
:1010D000009423460CAABF21304601F021FB9DF865
:1010E00030202B8943EA02232B813E238DF81830D0
:1010F0003F238DF814300094234606AABE213046C3
:1011000001F050FA009423460CAABF21304601F0AA
:1011100007FB9DF830306B810094234605AABE2161
:10112000304601F03FFA009423460CAABF21304616
:1011300001F0F6FA9DF830206B8943EA02231BB2D6
:101140006B816A682968521A07EE902AB8EEE77A2E
:10115000B5F908209B1A07EE903AF8EEE77AC7EE49
:10116000276AC5ED036A30238DF8103031238DF8DE
:101170000C300094234604AABE21304601F012FA36
:10118000009423460CAABF21304601F0C9FA9DF80D
:1011900030302B740094234603AABE21304601F060
:1011A00001FA009423460CAABF21304601F0B8FA98
:1011B0009DF830302A7CE2402A74E3406B74362379
:1011C0008DF8203037238DF81C300094234608AA70
:1011D000BE21304601F0E6F9009423460CAABF2157
:1011E000304601F09DFA9DF830306B820094234622
:1011F00007AABE21304601F0D5F9009423460CAA77
:10120000BF21304601F08CFA9DF830206B8A43EA0A
:1012100002236B823A238DF818303B238DF814306B
:101220000094234606AABE21304601F0BBF9009483
:1012300023460CAABF21304601F072FA9DF83030E7
:10124000AB820094234605AABE21304601F0AAF9DC
:10125000009423460CAABF21304601F061FA9DF8A4
:101260003020AB8A43EA02231BB2AB826A7C297C22
:10127000521A07EE902AB8EEE77AB5F912209B1AB7
:1012800007EE903AF8EEE77AC7EE276AC5ED066AF0
:101290000EB070BD00610008500200200402002062
:1012A000F0B587B0074628238DF8143029238DF830
:1012B00010301C4E01240094234605AABE2130465E
:1012C00001F070F90094234603AABF21304601F0D3
:1012D00027FA9DF80C500094234604AABE213046FC
:1012E00001F060F90094234603AABF21304601F0C3
:1012F00017FA9DF80C3045EA430307EE903AF8EEF2
:10130000E77A094B93ED067A67EE877A1B7C07EE46
:10131000103AB8EEC77A77EE277AC7ED007A07B0B1
:10132000F0BD00BF5002002004020020F0B587B0DD
:1013300007462A238DF814302B238DF810301C4ECD
:10134000012500952B4605AABE21304601F02AF959
:1013500000952B4603AABF21304601F0E1F99DF824
:101360000C4000952B4604AABE21304601F01AF924
:1013700000952B4603AABF21304601F0D1F99DF814
:101380000C3044EA032424B207EE904AF8EEE77AE0
:10139000084B93ED037A67EE877A93ED007AB8EE07
:1013A000C77A77EE277AC7ED007A07B0F0BD00BFA5
:1013B000500200200402002000B585B000238DF803
:1013C0000C3001238DF80D300093022303AA522123
:1013D000024801F0E7F805B05DF804FB5002002078
:1013E00070B584B005461E238DF80C3000238DF8AF
:1013F00008308DF80930134E01240094234603AAC7
:101400005221304601F0CEF80094022302AA532163
:10141000304601F085F99DF808209DF8093003EB6E
:101420000223143B2B60002B08DB2B68B3F5FA6F0B
:1014300002DD4FF4FA632B6004B070BD00232B6013
:10144000F3E700BF5002002000B585B0074B1B89B1
:1014500004AA22F8043D012300930223D421044866
:1014600001F0A0F805B05DF804FB00BF00610008C2
:10147000500200202DE9F04385B08146884617468A
:1014800004AE282306F8043D514D01240094234660
:101490003246D421284601F085F80094234602AA5A
:1014A000D521284601F03CF99DF80830A9F8003014
:1014B00029238DF80C30009423463246D421284647
:1014C00001F070F80094234602AAD521284601F0C5
:1014D00027F99DF80820B9F8003043EA0223A9F85B
:1014E00000302A238DF80C30009423463246D42154
:1014F000284601F057F80094234602AAD521284631
:1015000001F00EF99DF80830A8F800302B238DF873
:101510000C30009423463246D421284601F042F88C
:101520000094234602AAD521284601F0F9F89DF837
:101530000820B8F8003043EA0223A8F800302C2332
:101540008DF80C30009423463246D421284601F011
:1015500029F80094234602AAD521284601F0E0F894
:101560009DF808303B802D238DF80C3000942346E5
:101570003246D421284601F015F80094234602AAE9
:10158000D521284601F0CCF89DF808203B8843EA95
:1015900002233B80B9F90030002B12DB1B11A9F8A4
:1015A0000030B8F90030002B0DDB1B11A8F800301B
:1015B000B7F90030002B08DB1B113B8005B0BDE8FC
:1015C000F0830F33EAE70F33EFE70F33F4E700BFA1
:1015D0005002002000B585B022238DF80C30002386
:1015E0008DF80D3001230093022303AA3C21034808
:1015F00000F0D8FF05B05DF804FB00BF50020020EA
:101600002DE9F04385B081468846174604AE28236D
:1016100006F8043D514D01240094234632463C21F6
:10162000284600F0BFFF0094234602AA3D21284629
:1016300001F076F89DF80830A9F8003029238DF8DC
:101640000C300094234632463C21284600F0AAFF85
:101650000094234602AA3D21284601F061F89DF836
:101660000820B9F8003043EA0223A9F800302A2301
:101670008DF80C300094234632463C21284600F079
:1016800091FF0094234602AA3D21284601F048F824
:101690009DF80830A8F800302B238DF80C3000940A
:1016A000234632463C21284600F07CFF0094234626
:1016B00002AA3D21284601F033F89DF80820B8F829
:1016C000003043EA0223A8F800302C238DF80C30B8
:1016D0000094234632463C21284600F063FF0094E4
:1016E000234602AA3D21284601F01AF89DF8083049
:1016F0003B802D238DF80C300094234632463C214C
:10170000284600F04FFF0094234602AA3D212846B8
:1017100001F006F89DF808203B8843EA02233B804D
:10172000B9F90030002B12DBDB10A9F80030B8F952
:101730000030002B0DDBDB10A8F80030B7F90030CB
:10174000002B08DBDB103B8005B0BDE8F0830733DE
:10175000EAE70733EFE70733F4E700BF5002002062
:1017600082B00A4B1A6E42F001021A661A6E02F03B
:1017700001020092009A9A6D42F080529A659B6D28
:1017800003F080530193019B02B0704700100240A8
:1017900010B588B000230393049305930693079331
:1017A0000268144B9A4201D008B010BD124CE36C91
:1017B00043F00203E364E36C03F002030193019B33
:1017C0004FF44063039312230493012305930323EF
:1017D00006930423079303A9084800F049FCA36D6E
:1017E00043F48003A365A36D03F480030293029B7B
:1017F000DAE700BF00580040001002400004004833
:1018000000B589B0002303930493059306930793CF
:101810000268144B9A4202D009B05DF804FB03F54C
:10182000EA339A6D42F400429A659A6D02F40042DE
:101830000192019ADA6C42F00402DA64DB6C03F084
:1018400004030293029B4FF4E05303930223049397
:10185000032306930623079303A9034800F008FC1B
:10186000DAE700BF003C004000080048FEE7FEE762
:10187000FEE7FEE7FEE770477047704708B500F0E7
:1018800067FB08BD08B5022000F0E4FC014B012213
:101890001A6008BD2802002008B503460B4A1268EA
:1018A00042B10A4A106803446A46934206D8074A7E
:1018B000136008BD054A06491160F2E702F092FB89
:1018C0000C2303604FF0FF30F3E700BF200200203D
:1018D000B81000200F49D1F8883043F47003C1F8E4
:1018E00088300D4B1A6842F001021A60002098609F
:1018F0001A6822F0A85222F410221A604FF4805283
:10190000DA601A6822F480221A6098614FF000634E
:101910008B60704700ED00E000100240002393420E
:101920000CDA30B4C55CCC5CA54205D101339342DE
:10193000F8DB012030BC70470020FBE70120704736
:1019400010B582B01C4B1B68002BFBD000241A4B37
:101950001C604FF47A722146184802F078FB224648
:101960000121174800F06FFC134C626801230093BB
:10197000022312490A441349134802F0A1F963688B
:101980000233636002210E4800F056FC0128EBD0C0
:10199000012211460A4800F056FC06220B4907486E
:1019A000FFF7BCFF034620B900216160184602B072
:1019B00010BD0123FAE700BF28020020C40C00205C
:1019C00000100048040000209C02002008000020B5
:1019D000002393420ADA30B45C1C055DCD54C55C2B
:1019E0000D5502339342F7DB30BC7047704700233C
:1019F00093420ADA30B45C1C055DCD54C55C0D55CC
:101A000002339342F7DB30BC704770472DE9F04159
:101A100082B080460D463A4B1B68002BFBD0384EF7
:101A20000024346074604FF47A722146354802F025
:101A30000EFB354F4FF4FA720A21384602F007FBCD
:101A40002A4639464046FFF7D2FF746022460121FC
:101A50002E4800F0F8FB2A4C616801230093022312
:101A6000284A0A4428480144294802F029F96368B1
:101A700002336360AB42EEDB01221146234800F0E3
:101A8000E2FB1F4B1B68002BFBD01D4B00241C608E
:101A90005C604FF47A7221461A4802F0D8FA224666
:101AA00001211A4800F0CFFB154C62680123009316
:101AB000022314490A441749154802F001F96368E2
:101AC000023363600221114800F0B6FB0128EBD01D
:101AD000012211460D4800F0B6FB0F4C4FF47A7509
:101AE0002A460021204602F0B2FA2A46214605483D
:101AF000FFF76EFF012000F03DFA02B0BDE8F08173
:101B000028020020C40C0020E80600200010004835
:101B10009C0200200400002000030020F8B50746C6
:101B2000284B9B6823BB284C4FF47A720021204637
:101B300002F08DFA254B1D8825803946204602F09B
:101B40000BFF2046FEF700FD25522046FEF7FCFC69
:101B5000064605191E4B07CB30516960AA601B88E9
:101B6000AB81184B9A6801329A600022DA60F8BDA6
:101B7000154C2046FEF7E8FC84460619154D0FCD9E
:101B80004CF804007160B260F3602B883382204609
:101B9000FEF7DAFC0D4B1D8825523946204602F02F
:101BA000DBFE2046FEF7D0FC25522046FEF7CCFC9B
:101BB00006460519064B07CB30516960AA601B88A1
:101BC000AB81CEE728020020DC080020E461000899
:101BD000E8610008D0610008F0B585B006460D4602
:101BE000264BDB681BBB264C2046FEF7ADFC254B85
:101BF0001F8827523146204602F0AEFE2046FEF7EF
:101C0000A3FC27522046FEF79FFC1F4B1B88235244
:101C10002A461E4901A802F07FFE01A9204602F0D3
:101C20009BFE164AD3680133D36005B0F0BD2C2368
:101C3000ADF80430124C01A9204602F08DFE20467A
:101C4000FEF782FC0F4B1F8827523146204602F0D8
:101C500083FE2046FEF778FC27522046FEF774FCF0
:101C6000094B1B8823522A46084901A802F054FE5A
:101C700001A9204602F070FED3E700BF2802002031
:101C8000DC080020E4610008E0610008F861000859
:101C9000F0B585B0064610EE105A2A4BDB683BBB08
:101CA000294C2046FEF750FC284B1F88275231460E
:101CB000204602F051FE2046FEF746FC2752204601
:101CC000FEF742FC224B1B8823522846FEF7E4FB1A
:101CD00002460B461F4901A802F01EFE01A920463C
:101CE00002F03AFE174AD3680133D36005B0F0BD65
:101CF0002C23ADF80430144C01A9204602F02CFE30
:101D00002046FEF721FC114B1F8827523146204602
:101D100002F022FE2046FEF717FC27522046FEF76F
:101D200013FC0B4B1B8823522846FEF7B5FB0246DB
:101D30000B46084901A802F0EFFD01A9204602F078
:101D40000BFECFE728020020DC080020E461000839
:101D5000E061000800620008F0B5ADF2E47D062104
:101D60004148FFF753FE414F3846FEF7EDFB00F1C7
:101D70004906FEAC4FF47A752A460021204602F04F
:101D800066F92A46002104A802F061F96522384963
:101D9000204602F051F9002301930293ADF80C3074
:101DA0003246344901A802F0B7FD01A9204602F0ED
:101DB000D3FD2046FEF7C8FB844626182E4D0FCDD6
:101DC00044F80C007160B260F3600FCD3061716156
:101DD000B261F3613946204602F0BEFD2046FEF7AF
:101DE000B3FB264D044405F120072E460FCE20609C
:101DF0006160A260E36035461034BE42F5D107CD84
:101E000020606160A2602A88AB78A281A3731C4B1A
:101E10000493002401940294ADF80C40FEA8FEF750
:101E200093FB421E134901A802F076FD01A904A804
:101E300002F092FDFEA904A802F08EFD04A8FEF7B0
:101E400083FB014604A8FFF7E1FD06210D48FFF7DB
:101E5000DDFD4FF47A7000F08DF80B4BDC609C6078
:101E60000DF2E47DF0BD00BF08620008DC08002030
:101E700010620008786200087C6200089C6200081A
:101E800053333D00CC6200082802002008B50A2127
:101E90000D48FFF7BBFD0D210C48FFF7B7FD0621EC
:101EA0000B48FFF7B3FD04210A48FFF7AFFD0621F9
:101EB0000948FFF7ABFD14210848FFF7A7FD0A21E9
:101EC0000748FFF7A3FD08BDD4620008E0620008E0
:101ED000F0620008F8620008006300080863000868
:101EE00020630008104B1B780BB90120704710B518
:101EF00004464FF47A70B0FBF3F30C4A1068B0FB61
:101F0000F3F000F09FF868B90F2C01D901200AE026
:101F1000002221464FF0FF3000F052F8024B5C6087
:101F2000002000E0012010BD100000200000002073
:101F300010B5032000F032F80020FFF7D3FF10B1F6
:101F40000124204610BD0446FFF70AFCF9E7000013
:101F5000034B1B78034A11680B441360704700BFA2
:101F600010000020AC100020014B1868704700BF23
:101F7000AC10002038B50446FFF7F6FF0546B4F173
:101F8000FF3F02D0044B1B781C44FFF7EDFF401BC2
:101F9000A042FAD338BD00BF10000020074AD36822
:101FA00023F4E0631B041B0C000200F4E060184300
:101FB00040F0BF6040F40030D060704700ED00E0BA
:101FC00030B4174BDB68C3F30223C3F10704042CBE
:101FD00028BF04241D1D062D18D9033B4FF0FF35E3
:101FE00005FA04F421EA0401994005FA03F322EA10
:101FF0000303194300280BDB0901C9B200F160405B
:1020000000F5614080F8001330BC70470023E5E71D
:1020100000F00F000901C9B2024B1954F4E700BFE8
:1020200000ED00E014ED00E0002807DB00F01F02E7
:10203000400901239340024A42F82030704700BF14
:1020400000E100E00138B0F1807F0AD2064B586011
:10205000064AF02182F823100020986007221A60B7
:1020600070470120704700BF10E000E000ED00E085
:10207000F0B583B000233FE0C66A26EA0406C5F344
:10208000C0049C403443C4625FE0062400E00024A6
:10209000B4403C430235644E46F82540634C256805
:1020A000D44304EA05064F6817F4803F01D042EAA2
:1020B00005065E4D2E606D6804EA05064F6817F44C
:1020C000003F01D042EA0506584D6E60AD6804EA53
:1020D00005064F6817F4801F01D042EA0506534DEC
:1020E000AE60ED682C404E6816F4001F01D042EA45
:1020F00005044E4AD46001330A6832FA03F400F052
:10210000918001249C402240F5D04D686E1E012E26
:1021100003D9112D01D0122D12D186685F0003253D
:10212000BD4026EA0506CD68BD403543856046685A
:1021300026EA04064D68C5F300159D403543456009
:102140004D6805F00306032E96D0C5685F00032492
:10215000BC40E44325408E68BE402E43C6604D68B7
:10216000022D01D0122D13D1DE08083650F826E0DA
:1021700003F007054FEA850C0F2505FA0CF52EEA4A
:10218000050E0D6905FA0CF545EA0E0540F82650D6
:1021900005682C404D6805F00305BD402C430460E4
:1021A0004C6814F0805FA6D0214C256E45F00105E7
:1021B0002566246E04F001040194019C9D08AE1C68
:1021C000194C54F8267003F00304A6000F24B44001
:1021D00027EA0407B0F1904F3FF459AF154CA042E5
:1021E00016D004F58064A04214D004F58064A042A7
:1021F00012D004F58064A04210D004F58064A0429F
:102200000ED004F58064A0423FF43FAF07243FE7BF
:1022100001243DE702243BE7032439E7042437E7A0
:10222000052435E703B0F0BD000001400004014083
:1022300000100240000400480369194201D1002047
:102240007047012070470AB9816270478161704709
:102250007047000008B5054B5B69034200D108BD1B
:10226000024B5861FFF7F4FFF9E700BF000401409B
:1022700003689A6912F0020F01D000229A62036883
:102280009A6912F0010F03D19A6942F001029A6132
:10229000704770B4039E05686868740D04F4806428
:1022A00044F07F7444F4583444F47F7444F00304DD
:1022B00020EA0400C1F3090141EA02411943314314
:1022C0000143696070BC704770B504460D46164600
:1022D00003689B6913F0100F1CD023689A6912F0F1
:1022E000200F19D1B5F1FF3FF7D0FFF73DFE801B5E
:1022F000A84201D8002DF0D1636C43F02003636441
:10230000202384F84130002384F8423084F84030A0
:10231000012020E000201EE01022DA612368202541
:10232000DD612046FFF7A4FF2268536823F0FF73A6
:1023300023F48B3323F4FF7323F001035360636CA6
:1023400043F00403636484F84150002384F842306E
:1023500084F84030012070BD70B504460D46164625
:1023600023689B6913F0020F1DD13246294620468F
:10237000FFF7AAFFC8B9B5F1FF3FF1D0FFF7F4FDB1
:10238000801BA84201D8002DEAD1636C43F02003E2
:102390006364202384F84130002384F8423084F8B9
:1023A0004030012000E0002070BD0120FCE7F8B5BE
:1023B00005460F4616461C462B689B6937EA030301
:1023C0000CBF01230023B34218D1B4F1FF3FF3D077
:1023D000FFF7CAFD069BC01AA04201D8002CEBD122
:1023E0006B6C43F020036B64202385F8413000239D
:1023F00085F8423085F84030012000E00020F8BD2B
:1024000070B505460C4616462B689B6913F0200FE5
:102410001AD1324621462846FFF756FFB0B9FFF7DA
:10242000A3FD801BA04201D8002CEDD16B6C43F0C2
:1024300020036B64202385F84130002385F8423067
:1024400085F84030012070BD0020FCE70120FAE74C
:1024500070B504460D46164623689B6913F0040FB9
:102460003ED1324629462046FFF72EFF014600287E
:1024700038D123689A6912F0200F13D1FFF774FD49
:10248000801BA84201D8002DE6D1636C43F02003E5
:102490006364202384F84130002384F84030012114
:1024A000084670BD9A6912F0040F02D0228D002AEE
:1024B000F6D12022DA6121684B6823F0FF7323F400
:1024C0008B3323F4FF7323F001034B600023636419
:1024D00084F8412084F8423084F840300121DFE75D
:1024E0000021DDE70121DBE7002859D010B50446C3
:1024F00090F84130002B43D0242384F841302268E7
:10250000136823F0010313606368226823F070638B
:1025100013612268936823F400439360E368012BFE
:1025200033D0A368226843F404439360E368022B2A
:1025300031D02268536843F0007343F40043536082
:102540002268D36823F40043D3602369626913438C
:10255000A169226843EA0123D360E369216A226802
:102560000B4313602268136843F0010313600020DB
:102570006064202384F84130206384F8420010BD59
:1025800080F84030FFF704F9B6E7A368226843F407
:1025900000439360CAE723684FF400625A60C8E7BB
:1025A000012070472DE9F04383B090F84150EDB21F
:1025B000202D40F0A48090F84040012C00F0A48031
:1025C000984617460E4604464FF0010980F84090A1
:1025D000FFF7CAFC0546009019234A464FF4004114
:1025E0002046FFF7E4FE002840F09080212384F885
:1025F0004130102384F84230002363646762A4F8FA
:102600002A806363638D9BB2FF2B0AD9FF22228548
:10261000424B00934FF0807331462046FFF739FE5E
:1026200018E0628D92B222853C4B00934FF000730C
:10263000D2B231462046FFF72CFE0BE0628D92B2FB
:102640002285002300934FF00073D2B2314620461A
:10265000FFF71FFE638D9BB2002B33D02A460A99E9
:102660002046FFF779FE002852D1626A236812786B
:102670009A62636A01336362638D013B9BB2638537
:10268000238D013B9BB22385628D92B2002AE1D05B
:10269000002BDFD100950A9B002280212046FFF706
:1026A00086FE002836D1638D9BB2FF2BC6D9FF2250
:1026B0002285002300934FF0807331462046FFF7B8
:1026C000E8FDC7E72A460A992046FFF799FE034628
:1026D00010BB22682021D1612068426822F0FF727D
:1026E00022F48B3222F4FF7222F00102426084F85D
:1026F0004110002284F8422084F8402000E00223A8
:10270000184603B0BDE8F0830223F9E70123F7E799
:102710000123F5E70123F3E70123F1E7002000801F
:102720002DE9F04383B090F84150EDB2202D40F0F8
:10273000A48090F84040012C00F0A48098461746F1
:102740000E4604464FF0010980F84090FFF70CFC5C
:102750000546009019234A464FF400412046FFF7F2
:1027600026FE002840F09080222384F84130102378
:1027700084F84230002363646762A4F82A806363AC
:10278000638D9BB2FF2B0AD9FF222285424B009317
:102790004FF0807331462046FFF77BFD18E0628DD5
:1027A00092B222853C4B00934FF00073D2B2314677
:1027B0002046FFF76EFD0BE0628D92B2228500236A
:1027C00000934FF00073D2B231462046FFF761FD0F
:1027D000638D9BB2002B33D02A460A992046FFF71F
:1027E00037FE002852D123685A6A636A1A70636AF6
:1027F00001336362238D013B9BB22385628D013AD5
:1028000092B26285628D92B2002AE1D0002BDFD1B4
:1028100000950A9B002280212046FFF7C8FD002872
:1028200036D1638D9BB2FF2BC6D9FF2222850023B0
:1028300000934FF0807331462046FFF72AFDC7E72B
:102840002A460A992046FFF7DBFD034610BB2268A3
:102850002021D1612068426822F0FF7222F48B327D
:1028600022F4FF7222F00102426084F8411000223B
:1028700084F8422084F8402000E00223184603B088
:10288000BDE8F0830223F9E70123F7E70123F5E729
:102890000123F3E70123F1E70024008090F84130A1
:1028A000DBB2202B24D190F84030012B22D0012321
:1028B00080F84030242380F841300268136823F008
:1028C000010313600268136823F4805313600268E5
:1028D0001368194311600268136843F00103136021
:1028E000202380F84130002380F84030184670479C
:1028F000022070470220704790F84130DBB2202B55
:1029000022D190F84030012B20D0012380F84030B4
:10291000242380F841300268136823F00103136018
:102920000268136823F4706343EA012111600268AE
:10293000136843F001031360202380F84130002323
:1029400080F84030184670470220704702207047D8
:10295000024B186800F4C060704700BF0070004070
:10296000B0F5007F0FD01F4B1B6803F4C063B3F5B5
:10297000806F34D01B4A136823F4C06343F4806330
:10298000136000207047174B1B6803F4C063B3F556
:10299000007F22D0134A136823F4C06343F400730A
:1029A0001360114B1A68322303FB02F30F4AA2FB98
:1029B00003239B0C013300E0013B0A4A526912F4E5
:1029C000806F01D0002BF7D1064B5B6913F4806F49
:1029D00001D100207047032070470020704700207D
:1029E000704700BF007000400000002083DE1B43E2
:1029F00030B583B00546204B9B6D13F0805F0BD044
:102A0000FFF7A6FFB0F5007F17D0802D1FD82DD07F
:102A1000702D2DD000211BE0174CA36D43F0805387
:102A2000A365A36D03F080530193019BFFF790FF13
:102A3000A36D23F08053A365E4E7802D03D9A02D77
:102A400003D9022104E0002102E0012100E003217A
:102A50000A4A136823F007030B431360136803F05B
:102A600007038B4206D0012003B030BD0221EFE7FF
:102A70000121EDE70020F7E70010024000200240AE
:102A8000284A9368D26802F0030213F00C030AD0BC
:102A90000C2B06D0042B1FD0082B20D00020024680
:102AA00010E0012AF6D11F4A126812F0080F0CD16B
:102AB0001C4AD2F89420C2F303221B4951F8222069
:102AC00043B100200C2B0DD07047164A1268C2F398
:102AD0000312F2E71046F5E714480022F2E7144823
:102AE0000022EFE70F4BDB6803F00303022B15D046
:102AF000032B15D00B4BD868C0F302100130D968F6
:102B0000C1F3062102FB01F2B2FBF0F2D868C0F378
:102B1000416001304000B2FBF0F0D5E7034AE9E73D
:102B2000034AE7E7001002400C6100080024F400AB
:102B300000127A00002800F00083F0B583B004464C
:102B4000AF4B9D6805F00C05DE6806F003060368D0
:102B500013F0100F5BD0E5B10C2D18D0A369002B3A
:102B600000F0BC80A64A136843F001031360FFF72E
:102B7000FBF90746A24B1B6813F0020F40F09B8045
:102B8000FFF7F2F9C01B0228F4D90323E1E2012E7A
:102B9000E4D19B4B1B6813F0020F03D0A369002BF9
:102BA00000F0CE82206A964B1B6813F0080F5CD0B1
:102BB000934B1B6803F0F00398425DD8904B1A6862
:102BC00042F008021A601A6822F0F002216A0A43F1
:102BD0001A605A6822F47F42E16942EA01225A608F
:102BE000002D61D0FFF74CFF854B9B68C3F30313A7
:102BF000844AD35C03F01F03D840834B1860834B97
:102C00001868FFF76FF90346002840F0A282236896
:102C100013F0010F00F08180082D75D00C2D71D0BC
:102C20006368B3F5803F00F09780B3F5A02F00F004
:102C30009980734B1A6822F480321A601A6822F461
:102C400080221A606368002B00F09980FFF78CF9EE
:102C500007466B4B1B6813F4003F5ED1FFF784F906
:102C6000C01B6428F5D9032373E2654BD3F8943075
:102C70001B0903F0F0039FE7FFF7BAFE002840F0BE
:102C800061825F4B1A6842F008021A601A6822F0EB
:102C9000F002216A0A431A605A6822F47F42E1690D
:102CA00042EA01225A609DE7206AFFF7A1FE002850
:102CB00098D001234DE2524B1A6842F008021A6084
:102CC0001A6822F0F002216A0A431A605A6822F454
:102CD0007F42E16942EA01225A6098E7484A136854
:102CE00023F001031360FFF73FF90746444B1B68CD
:102CF00013F0020F8BD0FFF737F9C01B0228F5D96C
:102D0000032326E2032E8BD13D4B1B6813F4003FB7
:102D100003D06368002B00F01782236813F0020FC2
:102D20004FD0042D3CD00C2D38D0E368002B78D048
:102D3000334A136843F480731360FFF715F90646AE
:102D40002F4B1B6813F4806F62D1FFF70DF9801BC6
:102D50000228F5D90323FCE1294A136843F48033A0
:102D600013606FE703F18043A3F53C331A6842F424
:102D700080221A601A6842F480321A6062E7FFF714
:102D8000F3F807461E4B1B6813F4003FC5D0FFF74E
:102D9000EBF8C01B6428F5D90323DAE1022EC4D175
:102DA000174B1B6813F4806F03D0E368002B00F00F
:102DB000CD81134A536823F0F853216943EA016334
:102DC0005360236813F0080F56D06369002B3CD082
:102DD0000B4AD2F8943043F00103C2F89430FFF765
:102DE000C3F80646064BD3F8943013F0020F43D1D4
:102DF000FFF7BAF8801B0228F4D90323A9E100BF2A
:102E0000001002403C610008000000201400002077
:102E1000B84A536823F0F853216943EA01635360C9
:102E2000CFE7B44A136823F480731360FFF79CF86C
:102E30000646B04B1B6813F4806FC2D0FFF794F8BE
:102E4000801B0228F5D9032383E1AA4AD2F89430E3
:102E500023F00103C2F89430FFF786F80646A54B2D
:102E6000D3F8943013F0020F06D0FFF77DF8801BE3
:102E70000228F4D903236CE1236813F0040F7AD0FD
:102E80009C4B9B6D13F0805F0BD19A4B9A6D42F077
:102E900080529A659B6D03F080530193019B01263C
:102EA00000E00026944B1B6813F4807F26D0A368B3
:102EB000012B37D0052B3DD08E4BD3F8902022F03C
:102EC0000102C3F89020D3F8902022F00402C3F846
:102ED0009020A368002B3BD0FFF746F80746854BB0
:102EE000D3F8903013F0020F44D1FFF73DF8C01B28
:102EF00041F288339842F2D903232AE17E4A1368CB
:102F000043F480731360FFF72FF807467A4B1B6872
:102F100013F4807FCBD1FFF727F8C01B0228F5D927
:102F2000032316E1734AD2F8903043F00103C2F84C
:102F30009030CEE76F4BD3F8902042F00402C3F8F4
:102F40009020D3F8902042F00102C3F89020C0E70F
:102F5000FFF70AF80746674BD3F8903013F0020FDB
:102F600008D0FFF701F8C01B41F288339842F2D92C
:102F70000323EEE06EBBA36A002B00F0E980022B76
:102F80002DD00C2D00F0EE805A4B1A6822F0807282
:102F90001A601B6813F0205F04D1564AD36823F0EF
:102FA0000303D360534AD36823F0887323F4803338
:102FB000D360FEF7D9FF04464E4B1B6813F0007F29
:102FC00000F0B980FEF7D0FF001B0228F4D90323DC
:102FD000BFE0484A936D23F080539365CBE7454BA0
:102FE000DB6803F00301E26A91420FD00C2D00F080
:102FF000B380404B1B6813F0806F40F0AF803D4BB7
:103000001B6813F0805F2DD00123A2E003F0700253
:10301000216B0139B2EB011FE8D103F4FE42616B71
:10302000B2EB012FE2D103F40031A26B073A18BFD3
:1030300001229142DAD103F4C001E26B5208013A55
:10304000B1EB425FD2D103F0C063226C5208013A67
:10305000B3EB426FCAD1274B1B6813F0007F51D0EE
:10306000002376E0234A136823F080731360FEF791
:103070007BFF05461F4B1B6813F0007F06D0FEF751
:1030800073FF401B0228F5D9032362E0194AD36875
:103090001A491940E36A206B013843EA0013606B58
:1030A00043EA0023E06B4008013843EA4053206CB8
:1030B0004008013843EA4063A06B000943EA4043FB
:1030C0000B43D360136843F080731360D36843F0FD
:1030D0008073D360FEF748FF0446064B1B6813F06D
:1030E000007F0DD1FEF740FF001B0228F5D9032316
:1030F0002FE000BF00100240007000408C809DF95E
:10310000002326E0184B1A6842F080721A60DA68D1
:1031100042F08072DA60FEF727FF044604E0FEF713
:1031200023FF001B02281BD80F4B1B6813F0007FE6
:10313000F5D000230DE000230BE001231846704773
:10314000012306E0012304E0012302E0012300E063
:103150000023184603B0F0BD0123FAE70123F8E786
:103160000323F6E70123F4E700100240002800F0F3
:103170009B8070B504464E4B1B6803F007038B42DF
:103180000CD24B4A136823F007030B4313601368F8
:1031900003F007038B4201D0012070BD0D46236868
:1031A00013F0010F39D06368032B09D0022B26D00E
:1031B00063BB404A126812F0020F06D10120ECE70F
:1031C0003C4A126812F0007F70D03A498A6822F0B7
:1031D000030213438B60FEF7C7FE0646354B9B6820
:1031E00003F00C036268B3EB820F16D0FEF7BCFE4F
:1031F000801B41F288339842F0D90320CDE72D4A55
:10320000126812F4003FE0D10120C6E7294A126893
:1032100012F4806FD9D10120BFE7236813F0020FA9
:1032200006D0244A936823F0F003A1680B4393600F
:103230001F4B1B6803F00703AB420CD91C4A1368F1
:1032400023F007032B431360136803F00703AB421B
:1032500001D00120A1E7236813F0040F06D0154A1E
:10326000936823F4E063E1680B439360236813F0F1
:10327000080F07D00F4A936823F46053216943EA8B
:10328000C1039360FFF7FCFB0A4B9B68C3F3031376
:10329000094AD35C03F01F03D840084B1860084B61
:1032A0001868FEF71FFE78E701207047012074E7D9
:1032B00000200240001002403C6100080000002095
:1032C00014000020F8B55A4BDB6813F0030F18D038
:1032D000574BDB6803F003030268934202D00125D9
:1032E0002846F8BD002A00F0A080514BDB68C3F3EC
:1032F000021301334268934201D00125F0E7002513
:103300001AE00368022B59D0032B5ED0012B01D0A9
:1033100001250FE0464A126812F0020F61D0444DB9
:10332000EA6822F073024468013C43EA0413134341
:10333000EB600025002DD3D10F4604463C4A1368AC
:1033400023F080631360FEF70FFE0646384B1B68C0
:1033500013F0006F05D0FEF707FE801B0228F5D999
:103360000325002DBCD1002F3DD131490B6923F439
:103370001F3323F44073A068E2681209520442EA42
:10338000002213430B612A4A136843F080631360E1
:10339000FEF7EAFD0646264B1B6813F0006F05D1C9
:1033A000FEF7E2FD801B0228F5D90325002D97D1F9
:1033B0001F4A1369A1690B43136191E71C4A126804
:1033C00012F4806FABD10125B4E7194A126812F4E8
:1033D000003FA4D1164A126812F4802F9FD1012514
:1033E000A8E70125A6E7012F0FD01148026922F0B6
:1033F000C06222F4FE42A16863695B08013B5B0680
:1034000043EA012313430361BDE70948026922F43B
:10341000C00222F4FE42A16823695B08013B5B0500
:1034200043EA012313430361ADE7012558E700BFD9
:1034300000100240F8B5514BDB6813F0030F18D0B1
:103440004E4BDB6803F003030268934202D0012570
:103450002846F8BD002A00F08E80484BDB68C3F395
:10346000021301334268934201D00125F0E70025A1
:103470001AE00368022B59D0032B5ED0012B01D038
:1034800001250FE03D4A126812F0020F61D03B4D5A
:10349000EA6822F073024468013C43EA04131343D0
:1034A000EB600025002DD3D10F460446334A136844
:1034B00023F080531360FEF757FD06462F4B1B6821
:1034C00013F0005F05D0FEF74FFD801B0228F5D9F1
:1034D0000325002DBCD1002F3DD128494B6923F491
:1034E0001F3323F44073A068E2681209520442EAD1
:1034F000002213434B61214A136843F08053136049
:10350000FEF732FD06461D4B1B6813F0005F05D128
:10351000FEF72AFD801B0228F5D90325002D97D13F
:10352000164A536961690B43536191E7134A126864
:1035300012F4806FABD10125B4E7104A126812F47F
:10354000003FA4D10D4A126812F4802F9FD10125AB
:10355000A8E70125A6E70948426922F0C06222F4E3
:10356000FE42A16823695B08013B5B0643EA012335
:1035700013434361BFE701256AE700BF0010024023
:103580002DE9F04182B00446036813F4006F2FD098
:10359000436EB3F5800F25D008D9B3F5000F10D0D6
:1035A000B3F5400F40F09980002610E0002B40F06A
:1035B000948000210430FFF785FE06463EB1374671
:1035C00018E05E4AD36843F48033D36000265B4A38
:1035D000D2F8883023F44003616E0B43C2F8883080
:1035E000002707E000212030FFF724FF0646E5E72B
:1035F00000273E46236813F4805F15D0A36EB3F115
:10360000807F7AD06CD9B3F1007F70D0B3F1407F66
:103610007AD1002E7BD1494AD2F8883023F040730A
:10362000A16E0B43C2F88830236813F4003F00F00A
:103630008E80424B9B6D13F0805F6AD13F4B9A6D39
:1036400042F080529A659B6D03F080530193019B79
:103650004FF001083A4A136843F480731360FEF791
:1036600083FC0546364B1B6813F4807F05D1FEF7BB
:103670007BFC401B0228F5D90326002E62D12F4B7C
:10368000D3F8903013F4407316D0D4F884209A42C3
:1036900012D02A4AD2F8903023F44073D2F8901016
:1036A00041F48031C2F89010D2F8901021F48031AA
:1036B000C2F89010C2F8903013F0010F2CD1002EF8
:1036C00040F043811D4AD2F8903023F44073D4F87F
:1036D00084100B43C2F8903035E001273E4689E75D
:1036E00093B90021201DFFF7EDFD064691E7134A2F
:1036F000D36843F48033D3608BE7002104F12000CA
:10370000FFF798FE064684E701273E468CE73746DA
:103710008AE74FF000089DE7FEF726FC0546074BB9
:10372000D3F8903013F0020FC9D1FEF71DFC401BF7
:1037300041F288339842F2D90326C0E700100240D4
:10374000007000403746B8F1000F40F00081236858
:1037500013F0010F08D09D4AD2F8883023F00303FC
:10376000A16B0B43C2F88830236813F0020F08D016
:10377000964AD2F8883023F00C03E16B0B43C2F871
:103780008830236813F0040F08D0904AD2F88830AC
:1037900023F03003216C0B43C2F88830236813F008
:1037A000080F08D0894AD2F8883023F0C003616C32
:1037B0000B43C2F88830236813F0100F08D0834AF7
:1037C000D2F8883023F44073A16C0B43C2F88830E0
:1037D000236813F0200F08D07C4AD2F8883023F4F5
:1037E0004063E16C0B43C2F88830236813F4007F18
:1037F00008D0764AD2F8883023F44023E16D0B4399
:10380000C2F88830236813F4806F08D06F4AD2F86A
:10381000883023F44013216E0B43C2F888302368AC
:1038200013F0400F08D0694AD2F8883023F440538F
:10383000216D0B43C2F88830236813F0800F08D045
:10384000624AD2F8883023F44043616D0B43C2F8DA
:103850008830236813F4807F08D05C4AD2F888301F
:1038600023F44033A16D0B43C2F88830236813F46E
:10387000005F0FD0554AD2F8883023F04063E16EE4
:103880000B43C2F88830E36EB3F1006F65D0B3F13B
:10389000806F67D0236813F4002F0FD04B4AD2F803
:1038A000883023F04063216F0B43C2F88830236FC8
:1038B000B3F1006F5ED0B3F1806F60D0236813F472
:1038C000802F0FD0414AD2F8883023F04063616FD7
:1038D0000B43C2F88830636FB3F1006F57D0B3F178
:1038E000806F59D0236813F4804F0FD0374AD2F835
:1038F000883023F04053A16F0B43C2F88830A36F88
:10390000B3F1805F50D0B3F1005F55D0236813F45A
:10391000004F08D02D4AD2F8883023F08043E16F61
:103920000B43C2F88830236813F4803F09D0274A3C
:10393000D2F8883023F00043D4F880100B43C2F84B
:103940008830384602B0BDE8F0813746FBE61F4AB2
:10395000936D23F080539365F9E6D36843F48013A5
:10396000D36097E70121201DFFF7ACFC002891D020
:1039700007468FE7D36843F48013D3609EE70121A5
:10398000201DFFF79FFC002898D0074696E7D368D4
:1039900043F48013D360A5E70121201DFFF792FCBB
:1039A00000289FD007469DE70221201DFFF78AFCD3
:1039B0000028ABD00746A9E7022104F12000FFF759
:1039C00039FD0028A2D00746A0E700BF0010024042
:1039D0002DE9F04383B004460F4616461D46FEF718
:1039E000C3FA0A9B181A00EB0508FEF7BDFA8146D8
:1039F0002A4B1B68C3F3CB3308FB03F30193236803
:103A00009B6837EA03030CBF01230023B34240D075
:103A1000B5F1FF3FF3D0FEF7A7FAA0EB0900404550
:103A20000AD2B8F1000F07D0019B0BB94FF0000884
:103A3000019B013B0193E2E72268536823F0E00316
:103A400053606368B3F5827F0BD0A36AB3F5005F60
:103A500014D0012384F85D30002384F85C30032007
:103A600018E0A368B3F5004F02D0B3F5806FECD136
:103A70002268136823F040031360E6E722681368A6
:103A800023F4005313602268136843F40053136057
:103A9000DFE7002003B0BDE8F08300BF0000002096
:103AA0002DE9F04383B006460C4615461F46FEF747
:103AB0005BFA0A9B181A00EB0708FEF755FA8146D5
:103AC0002D4B1B6803EB8303C3EBC3031B0D08FBE8
:103AD00003F3019302E0B7F1FF3F0BD13268936823
:103AE0002340AB4244D0B4F5C06FF4D1002DF2D1E5
:103AF000137BF0E7FEF738FAA0EB090040450AD245
:103B0000B8F1000F07D0019B0BB94FF00008019BE3
:103B1000013B0193E2E73268536823F0E00353600E
:103B20007368B3F5827F0BD0B36AB3F5005F14D02E
:103B3000012386F85D30002386F85C30032018E00E
:103B4000B368B3F5004F02D0B3F5806FECD13268A3
:103B5000136823F040031360E6E73268136823F428
:103B6000005313603268136843F400531360DFE7B7
:103B7000002003B0BDE8F0830000002070B582B0E3
:103B800004460D46164600920B4600224FF4C051E3
:103B9000FFF786FFB8B900962B4600228021204609
:103BA000FFF716FFB8B900962B4600224FF4C0610C
:103BB0002046FFF775FF034650B1236E43F0200304
:103BC0002366032304E0236E43F0200323660323CC
:103BD000184602B070BD236E43F020032366032312
:103BE000F6E700286AD010B50446436A33B9436843
:103BF000B3F5827F05D00023C36102E00023036197
:103C000043610023A36294F85D30002B4DD0022362
:103C100084F85D302268136823F040031360E36882
:103C2000B3F5E06F47D90022B3F5706F04D0B3F558
:103C3000E06F01D00023A362636803F48273A1687C
:103C400001F404410B43216901F002010B43616956
:103C500001F001010B43A16901F400710B43E1691B
:103C600001F038010B43216A01F080010B43A16A86
:103C700001F4005120680B430360638B03F00403DD
:103C8000616A01F010010B43616B01F008010B4305
:103C9000E16801F470610B43216813434B6000201D
:103CA0002066012384F85D3010BD84F85C30204626
:103CB000FDF7A6FDABE74FF48052B5E70120704752
:103CC0002DE9F843DDF8208090F85C40012C00F0ED
:103CD0005C811D4617460E460446012380F85C3081
:103CE000FEF742F9814694F85D00C0B2636801288E
:103CF00014D0B3F5827F09D00223012284F85D201D
:103D0000002284F85C201846BDE8F883A368002BE5
:103D100040F02D81042801D00223EEE7002E00F0B0
:103D20002881002F00F02781002D00F0268194F8D3
:103D30005D30DBB2042B02D0052384F85D30002314
:103D400023662764A4F84650A4F84450A663E58788
:103D5000A587E3642365E368B3F5E06F01D8012D1F
:103D600022D92268536823F48053536023681A6869
:103D700012F0400F03D11A6842F040021A60E36863
:103D8000B3F5E06F56D963680BB1012D0AD1A26B70
:103D900023681288DA60A36B0233A363E38F013BCD
:103DA0009BB2E387012525E02268536843F48053E2
:103DB0005360DBE723689A6812F0010F10D0B4F863
:103DC000462092B262B1DA68236C1A80236C023307
:103DD0002364B4F84630013B9BB2A4F84630012579
:103DE000FEF7C2F8A0EB0900404503D3B8F1FF3F4E
:103DF00040F0C580E38F9BB22BB9B4F846309BB23C
:103E0000002B00F0A78023689A6812F0020FD1D02F
:103E1000E28F92B2002ACDD0002DCBD0A26B1288B7
:103E2000DA60A36B0233A363E38F013B9BB2E387AA
:103E30000025BFE763680BB1012D0ED1E38F9BB264
:103E4000012B0CD9A26B23681288DA60A36B0233B2
:103E5000A363E38F023B9BB2E387012547E0A26B9C
:103E6000236812781A73A36B0133A363E38F013BBA
:103E70009BB2E387F1E7E28F92B2012A0BD9A26BE2
:103E80001288DA60A36B0233A363E38F023B9BB219
:103E9000E38700253CE0A26B12781A73A36B013311
:103EA000A363E38F013B9BB2E387002530E02268E8
:103EB000536843F48053536001250CE0226C1B7B54
:103EC0001370236C01332364B4F84630013B9BB27A
:103ED000A4F846300125FEF747F8A0EB090040455D
:103EE00002D3B8F1FF3F4CD1B8F1000F4BD0E38FB4
:103EF0009BB21BB9B4F846309BB25BB323689A6897
:103F000012F0020F04D0E28F92B20AB1002DB2D1AA
:103F100023689A6812F0010FDDD0B4F8462092B2FF
:103F2000002AD8D0B4F8462092B2012AC6D9DA685D
:103F3000236C1A80236C02332364B4F84630023BAE
:103F40009BB2A4F84630B4F846309BB2012BAED9F0
:103F50000125C0E74A4641462046FFF70FFE0346CB
:103F600000283FF4CAAE202323660123C5E60223BE
:103F7000C3E60123C1E60123BFE60123BDE6032317
:103F8000BBE60323B9E60323B7E60223BBE6000042
:103F9000DFF834D0FDF79EFC002103E00B4B5B58AB
:103FA000435004310A480B4B42189A42F6D30A4A4E
:103FB00002E0002342F8043B084B9A42F9D300F098
:103FC00017F8FCF7EFFEFEE7008001209865000877
:103FD00000000020E8010020E8010020B4100020CB
:103FE000FEE70000014B1868704700BF1800002072
:103FF00070B50D4E0D4CA41BA4100025A54209D18F
:104000000B4E0C4C02F06EF8A41BA4100025A54228
:1040100005D170BD56F8253098470135EEE756F8C2
:10402000253098470135F2E7886500088865000863
:10403000886500088C65000810B5431E0A4491424B
:1040400000D110BD11F8014B03F8014FF7E702440E
:104050000346934200D1704703F8011BF9E72DE9AD
:10406000FF4755EC104B0D9FDDF830A0002D0E469C
:1040700091461946B8BF22462B4627F02007BBBF02
:1040800005F100431D4600232D23B8BF1446462FDB
:104090000B7004D0452F00D10136022100E003212E
:1040A00003AB019302AB00933246534645EC104BF1
:1040B00000F0EEFC472F804602D119F0010F26D008
:1040C000462F08EB060911D198F80030302B0AD1A1
:1040D0000022002320462946FCF7FAFC18B9C6F155
:1040E0000106CAF80060DAF8003099440022002383
:1040F00020462946FCF7ECFC38B93022039B4B459F
:1041000005D2591C03911A70F8E7CDF80C90039B67
:104110000E9AA3EB08034046136004B0BDE8F08795
:10412000F7B500290446BABF49422D232B2309299C
:1041300004F8022B437020DD0DF107031F460A2609
:1041400091FBF6F506FB15113031092D03F8011C22
:1041500003F1FF32294609DC3031023B02F8011C31
:10416000BB42224604D3101A03B0F0BD1346E7E762
:1041700013F8012B04F8012BF2E730231944837064
:10418000021DC170EFE700002DE9F04F8DB00C4625
:10419000DDF8588016461F46054601F031FA0368DF
:1041A00004931846FCF7D0F900230A93D8F800309E
:1041B0000590073323F0070303F1080294F818A0D1
:1041C000D4F800B0C8F80020D3E90023C4E91223D2
:1041D000D4E9128929F000430793CDF818804FF0F5
:1041E000FF32A74BDDE90601FCF7A4FC70BB4FF0E2
:1041F000FF32A34BDDE90601FCF77EFC30BB002259
:10420000002340464946FCF76DFC10B12D2384F88D
:1042100043309C4A9C4BBAF1470F8CBF904698465E
:1042200003232BF00402236122604FF00009009762
:1042300033460BAA2146284600F0E6F9013040F04B
:104240008D804FF0FF300DB0BDE8F08F42464B46F9
:1042500040464946FCF76EFC10B18C4A8C4BDAE7BD
:1042600061684B1C4BF480620AA83ED10623636050
:104270000023CDE9020309AB009349EC108B0DF14B
:1042800023032260CDF804A061682846FFF7E7FE0B
:104290000AF0DF03472B804609D1099BD81C02DBBB
:1042A0006268934247DDAAF1020A5FFA8AFABAF11C
:1042B000650F099924D80139524604F1500009913B
:1042C000FFF72EFF0A9A1318012A8146236102DCA8
:1042D0002268D10701D5013323619DF82330002BDB
:1042E000A5D02D2384F84330A1E7BAF1670F00F081
:1042F0007781BAF1470FBBD10029B9D10123B6E7C5
:10430000BAF1660F19D1002963680CDD216113B978
:104310002268D20702D501330B442361099BA365B0
:104320004FF00009D9E713B92268D00701D502334D
:10433000F3E70123F1E74FF0670ADDE90932934221
:1043400005DB22682361D107E8D50133E5E7002BBF
:10435000D4BFC3F1020301231344DEE723685A05E7
:1043600007D42369424631462846B84701302BD14D
:1043700067E7BAF1650F40F2DC8000220023D4E940
:104380001201FCF7A5FB002833D00123414A314636
:104390002846B84701303FF454AFDDE909239A427B
:1043A00002DB2368D8070FD5DDE904233146284610
:1043B000B84701303FF445AF4FF0000804F11A0947
:1043C0000A9B013B434509DC23689B0700F10381FD
:1043D000E0680B9B9842B8BF184634E701234A4671
:1043E00031462846B84701303FF42BAF08F10108A9
:1043F000E6E7099B002B2BDC0123264A31462846A1
:10440000B84701303FF41DAF099B23B90A9B13B98C
:104410002368D907D8D5DDE9042331462846B847B3
:1044200001303FF40EAF4FF0000904F11A0A099B66
:104430005B424B4501DC0A9B94E70123524631461F
:104440002846B84701303FF4FCAE09F10109EEE718
:104450000A9AA36D9A42A8BF1A46002A914607DD20
:104460001346314642462846B84701303FF4E9AE8C
:1044700004F11A034FF0000B29EAE979069315E0DD
:10448000FFFFEF7F306300082C63000838630008EB
:10449000346300083C6300080123069A314628462D
:1044A000B84701303FF4CDAE0BF1010BD4F858A062
:1044B000AAEB09035B45EFDCDDE909239A42D0440E
:1044C00015DB2368DA0712D40A9B0999A3EB0A02C9
:1044D000A3EB010A9245A8BF9246BAF1000F0EDC89
:1044E0004FF000082AEAEA7A04F11A0919E0DDE936
:1044F000042331462846B8470130E5D1A1E65346AA
:10450000424631462846B8470130E9D199E60123B1
:104510004A4631462846B84701303FF492AE08F18A
:104520000108DDE909239B1AA3EB0A034345EEDCEE
:104530004AE70A9A012A01DCDB073AD50123424601
:1045400031462846B84701303FF47BAEDDE904230D
:1045500031462846B847013008F101083FF471AEF2
:104560000A9B002203F1FF3AD4E912010023FCF771
:10457000AFFAC8B95346424631462846B8470130DB
:104580000ED15EE60123524631462846B847013037
:104590003FF457AE08F101080A9B013B4345F1DCAB
:1045A0004B4604F15002DEE64FF0000804F11A0A0F
:1045B000F2E70123DFE701234A4631462846B847A0
:1045C00001303FF43EAE08F10108E3680B9A9B1AF4
:1045D0004345F0DCFCE64FF0000804F11909F4E76C
:1045E00000293FF48BAE0023CDE9020309AB009311
:1045F00049EC108B2260CDF804A00DF1230328466E
:10460000FFF72DFD804648E62DE9F04791461F460D
:104610008A680B69DDF820809342B8BF1346C9F859
:10462000003091F8432006460C4612B10133C9F818
:1046300000302368990642BFD9F800300233C9F828
:104640000030256815F0060507D104F1190AE36862
:10465000D9F800209B1AAB4228DC94F8433022683A
:10466000003318BF012392062DD404F143023946CA
:104670003046C047013020D02368E568D9F80020D3
:1046800003F00603042B08BFAD1AA36822690CBF10
:1046900025EAE57500259342C4BF9B1AED184FF03B
:1046A00000091A344D451AD1002008E00123524672
:1046B00039463046C047013003D14FF0FF30BDE8E6
:1046C000F0870135C3E7E1185A1C302081F8430018
:1046D000224494F8451082F843100233C5E70123C1
:1046E000224639463046C0470130E6D009F101097B
:1046F000D8E700002DE9F04301F1430C0C46097E98
:1047000085B06E291746064698460C9A00F0B3808D
:1047100022D8632936D00AD8002900F0B980582958
:1047200000F0838004F1420584F8421032E06429ED
:1047300001D06929F6D120681368050603F1040148
:104740002AD51B681160002B03DA2D225B4284F806
:1047500043206F480A2239E0732900F09D8008D871
:104760006F2920D07029DDD1236843F02003236016
:1047700003E0752917D07829D4D1782384F84530FF
:10478000644855E01368191D1B68116004F1420567
:1047900084F8423001238CE01B68116010F0400F58
:1047A00018BF1BB2CFE713682568181D10602806D4
:1047B00001D51B6802E06806FBD51B8854486F29A9
:1047C00014BF0A220822002184F843106568A560FE
:1047D000002DC0F29580216821F004012160002B9A
:1047E0003DD1002D40F08E806546082A0BD123680C
:1047F000DB0708D5236962689A42DEBF302305F8DB
:10480000013C05F1FF35ACEB05032361CDF80080D9
:104810003B4603AA21463046FFF7F6FE01304DD154
:104820004FF0FF3005B0BDE8F083394884F84510FB
:10483000136821681D1D1B6815600A060BD5CA0781
:1048400044BF41F0200121601BB9226822F0200200
:1048500022601022B7E74D0648BF9BB2EFE76546DE
:10486000B3FBF2F102FB1133C35C05F8013D0B46CB
:104870000029F5D1B9E7136825686169181D106032
:1048800028061B6801D5196002E06A06FBD519806D
:10489000002323616546B9E71368191D11601D687F
:1048A000626800212846FBF75BFE08B1401B606090
:1048B00063682361002384F84330A7E723692A460D
:1048C00039463046C0470130AAD023689B0713D42D
:1048D000E068039B9842B8BF1846A3E701234A4605
:1048E00039463046C04701309AD00135E368039A13
:1048F0009B1AAB42F2DCEBE7002504F11909F5E75E
:10490000002BACD1037884F8423004F142056CE707
:104910003E6300084F6300080EB400B59CB01DABA9
:10492000029006906FF000410948079104910949EF
:1049300053F8042B05910068019302A901F062FA73
:10494000029B00221A701CB05DF804EB03B07047A4
:10495000180000200802FFFF10B503461A785C1CFF
:104960003AB9013B11F8012B03F8012F002AF9D1C4
:1049700010BD2346F2E72DE9F74F03690C69A34206
:104980008046C0F28280013C01F114074FEA840C9A
:1049900000F1140657F8245056F8240006EB0C03D7
:1049A000013507EB0C090193B0FBF5F595B34FF01A
:1049B000000A3846B646D34650F8042B93B205FB9E
:1049C00003A34FEA134A9BB2ABEB0303120CDEF8CE
:1049D00000B005FB02A213FA8BF34FEA124A1FFA4A
:1049E00082FBDEF80020CBEB124202EB23429BB2AB
:1049F00043EA024381454FEA224B4EF8043BDBD2A7
:104A000056F80C3033B9019B043B9E421A4630D312
:104A1000C8F81040404601F01FF8002825DB01359A
:104A200030464FF0000C57F8042BD0F800E093B25A
:104A3000ACEB0303120C13FA8EF3C2EB1E4202EB33
:104A400023429BB243EA0243B9454FEA224C40F865
:104A5000043BE8D256F8242006EB84032AB9043B31
:104A60009E421A460BD3C8F81040284603B0BDE852
:104A7000F08F1268043B002ACAD1013CC5E71268D6
:104A8000043B002AEFD1013CEAE70020EEE70000FA
:104A90002DE9F04F57EC106B97B0456A069104462C
:104AA0000B921293DDF88080CDE900673DB91020AC
:104AB00000F0B4FD6062C0E901550560C560636A3D
:104AC000196851B15A684A60012393408B602046AF
:104AD00000F0E0FD636A00221A603B1EBBBF23F0BA
:104AE0000043019300230122ACBFC8F80030C8F88E
:104AF0000020AF4BDDF8048033EA080314D1129A8A
:104B000042F20F731360009B23B9C8F3130000280F
:104B100000F04285219BDFF8ACB2002B00F0448509
:104B20000BF1030300F03EBDDDE900670022002326
:104B300030463946FBF7CCFF814668B1129A012313
:104B40001360219B002B00F024859A4B219A03F1DE
:104B5000FF3B136000F028BD14AA15A947EC106BA9
:104B6000204600F0F0FFC8F30A550490002D7CD0D9
:104B7000C7F3130343F07F5BB2464BF4401BA5F22F
:104B8000FF35CDF84C9000228B4B50465946FBF731
:104B900023FB81A3D3E90023FBF732FD80A3D3E9F4
:104BA0000023FBF71BFB064628460F46FBF762FC7B
:104BB0007DA3D3E90023FBF723FD02460B463046D5
:104BC0003946FBF70BFB06460F46FBF7C9FF0022F1
:104BD0008246002330463946FBF784FF48B15046F1
:104BE000FBF748FC32463B46FBF772FF08B90AF177
:104BF000FF3ABAF1160F59D8704901EBCA01DDE945
:104C00000023D1E90001FBF78BFF002850D00AF107
:104C1000FF3A00230F93149B5D1BB5F1010849BFB8
:104C2000C5F10103002305934FF0000858BF059319
:104C3000BAF1000F3EDB0023D044CDF838A0079333
:104C4000069B092B00F29080052BC4BF043B069302
:104C5000069BA3F10203CCBF00250125032B00F224
:104C60008F80DFE803F07D7F3171DDE914531D444F
:104C700005F23240202813DDC0F14000009B08FA05
:104C800000F805F2124023FA00F048EA0000FBF7B2
:104C9000E1FB01238246A1F1F87B013D139372E70A
:104CA000009BC0F1200003FA00F0F0E70123B1E718
:104CB0000F90B0E7059BA3EB0A030593CAF100032D
:104CC000079300230E93BBE701230A930B9B002B52
:104CD00059DD02939946666A00227260042202F14D
:104CE00014009842716853D9204600F09FFC636A13
:104CF0003060B9F10E0FD3F800B000F2E680002D5D
:104D000000F0E3809DED007BBAF1000F8DED107B8C
:104D100074DD2A4A0AF00F0302EBC30393ED007B14
:104D20004FEA2A16F0068DED087B65D5244BDDE9A8
:104D30001001D3E90823FBF78DFDCDE9000106F052
:104D40000F0603251E4F4CE001230A930B9B53448F
:104D500003F1010902934B46012BB8BF0123BAE7C7
:104D60000023B2E70023F0E70125002306930A950C
:104D70004FF0FF3302939946002212230B92AAE7C9
:104D800001230A93F4E70123029399461A46F5E7B3
:104D9000013171605200A2E761436F63A787D23F80
:104DA000B3C8608B288AC63FFB799F501344D33F1A
:104DB0000000F07F3D6300080000F83F98630008A2
:104DC0007063000869630008F10708D5DDE9080190
:104DD000D7E90023FBF714FCCDE908010135761073
:104DE0000837002EF0D1DDE90823DDE90001FBF7EB
:104DF00031FDCDE900011AE00225A3E700F0A08013
:104E0000CAF100069F4BA04F06F00F0203EBC2034E
:104E1000D3E90023DDE91001FBF7F2FBCDE9000146
:104E2000361100230225002E7FD1002BE1D10F9BEC
:104E3000002B00F08780DDE900670022934B3046AD
:104E40003946FBF74FFE00287CD0B9F1000F79D02E
:104E5000029B002B35DD0AF1FF330893394600220F
:104E60008B4B3046FBF7CCFBCDE90001029F0135AF
:104E70002846FBF7FFFADDE90023FBF7C1FB002220
:104E8000844BFBF7ABF90546A1F15076002F5DD1BD
:104E90000022814BDDE90001FBF79EF92A463346EB
:104EA000CDE90001FBF73CFE002840F088822A464D
:104EB00006F10043DDE90001FBF714FE002840F095
:104EC0007C82DDE91023CDE90023159B002BC0F285
:104ED0005081BAF10E0F00F34C816A4B03EBCA0309
:104EE00093ED007B0B9B002B8DED027B80F2D88035
:104EF000B9F1000F00F3D48040F05E820022664BCF
:104F000051EC170BFBF77CFBDDE90023FBF7FEFD03
:104F10004F464E46002840F0348231230BF1010504
:104F20008BF800300AF1010A2FE2F20705D5D7E924
:104F30000023FBF765FB013501237610083772E784
:104F4000022574E7CDF820A04F4691E74D4B03EBC7
:104F5000C70353E902010A9B002B47D002460B46C8
:104F600000204E49FBF776FC2A463346FBF734F91E
:104F7000CDE90C015D46DDE90001FBF7F1FD0646D8
:104F8000FBF778FA02460B46DDE90001FBF724F94E
:104F9000303605F8016BDDE90C23CDE90001FBF7A4
:104FA000A1FD002863D1DDE9002300203749FBF78C
:104FB00013F9DDE90C23FBF795FD002840F0B780DD
:104FC000A5EB0B039F427FF77CAF0022304BDDE95E
:104FD0000C01FBF715FB0022CDE90C012C4BDDE9A0
:104FE0000001FBF70DFBCDE90001C4E72A4633467B
:104FF000FBF706FBCDE90C010BEB07055E46DDE98F
:105000000001FBF7ADFD0746FBF734FA30370246E7
:105010000B46DDE90001FBF7DFF806F8017BAE4245
:10502000CDE900014FF0000226D11C4BDDE90C0157
:10503000FBF7D4F802460B46DDE90001FBF770FDF3
:10504000002874D1DDE90C2300201449FBF7C4F8D3
:1050500002460B46DDE90001FBF744FD00283FF462
:1050600030AF15F8013C302B05F1FF3202D0DDF8EE
:1050700020A04AE01546F4E7054BFBF7C1FACDE95D
:105080000001BCE798630008706300080000F03F6F
:105090000000244000001C40000014400000E03FDD
:1050A000DDE900675D46DDE9022330463946FBF75E
:1050B000D1FBFBF755FD8046FBF7DCF9DDE9022368
:1050C000FBF79EFA02460B463046394608F1300699
:1050D000FBF782F805F8016BA5EB0B06B14502461C
:1050E0000B4639D1FBF77AF8DDE9022306460F4675
:1050F000FBF716FDC8B9DDE9022330463946FBF758
:10510000E7FC10B118F0010F0FD10499204600F010
:10511000C1FA0023129A2B700AF101031360219B3C
:10512000002B00F041821D603EE2CDF820A015F872
:10513000012C392A05F1FF3308D19B450AD1089B80
:105140000133089330238BF800305B461A78013224
:105150001A708CE71D46EAE700229B4BFBF750FADA
:105160000022002306460F46FBF7B2FC00289AD027
:10517000CBE70A9A002A00F08B80069A012A6EDC9F
:10518000139A002A67D003F23343079F059D059ABF
:1051900001211A4420460592984400F01BFB064664
:1051A000002D0CDDB8F1000F09DD4545059A2B46B1
:1051B000A8BF4346D21A0592ED1AA8EB0308079B35
:1051C000EBB10A9B002B67D08FB131463A4620469F
:1051D00000F0A0FB049A01460646204600F003FBBF
:1051E00004990890204600F055FA089B0493079B09
:1051F000DA1B04D00499204600F08CFB04900121B6
:10520000204600F0E7FA0E9B0746002B00F0D08105
:105210001A460146204600F07DFB069B012B0746FF
:1052200040DC009B002B39D1019BC3F31303002BFF
:1052300036D1019B23F000431B0D1B052BB1059BB1
:105240000133059308F10108012307930E9B002BFE
:105250002AD1012030E0149BC3F1360395E7079B68
:1052600009F1FF37BB42BFBF079B0797FA1A0E9B96
:10527000BBBF9B180E93DF1B0027B9F1000FB5BF12
:10528000059B059DA3EB09054B46B8BF00237EE7B0
:10529000079F059D0A9E83E7079AABE70023D4E7A3
:1052A000009BD2E7002307933B6907EB8303186950
:1052B00000F042FAC0F12000404410F01F0047D037
:1052C000C0F12003042B3BDD059BC0F11C0003440F
:1052D000059305448044059B002B05DD1A4604997F
:1052E000204600F065FB0490B8F1000F05DD39465B
:1052F0004246204600F05CFB07460F9B53B33946FD
:10530000049800F0A9FB002824DA00230A2204995B
:10531000204600F0D6F90A9B04900AF1FF3A002BD0
:1053200000F04D81002331460A22204600F0C9F9E1
:10533000029B002B06464FDC069B022B4CDD11E046
:10534000C9D0059A1C331A4405921D449844C2E7FB
:105350000346F6E7B9F1000F38DC069B022B35DD7A
:10536000CDF80890029B63B939460522204600F02B
:10537000A8F901460746049800F06EFB00283FF7A5
:10538000CCAD0B9B5D466FEA030A4FF0000939462E
:10539000204600F07FF9002E3FF4B7AEB9F1000FC0
:1053A00005D0B14503D04946204600F073F9314697
:1053B000204600F06FF9A8E600273E46E1E7DDF859
:1053C00020A03E46A9E500BF000024400A9BCDF87E
:1053D0000890002B00F0FA80002D05DD31462A46AA
:1053E000204600F0E5FA0646079B002B4CD071687A
:1053F000204600F01BF9326902320546920006F1A0
:105400000C010C30FEF718FE01222946204600F060
:10541000CFFA009BCDF814B003F00103B146079317
:10542000064639460498FFF7A6FA4946054600F1B4
:105430003008049800F010FB3246009039462046B0
:1054400000F024FBC368024603BB014608900498A1
:1054500000F002FB089A034611462046089300F02C
:1054600019F9089BA3B9069A92B9079A82B9B8F1BB
:10547000390F29D0009B002B01DD05F13108059B78
:105480005D1C83F8008082E73046C2E70123E3E732
:10549000009A002A04DB25D1069A1ABB079A0ABB98
:1054A000002BECDD01220499204600F081FA3946F8
:1054B000049000F0D1FA002803DCE0D118F0010FCD
:1054C000DDD0B8F1390FD8D1059B059A5D1C392381
:1054D000137015F8013C392B05F1FF324FD0013321
:1054E000137054E7059A002B02F1010506DDB8F1AF
:1054F000390FE9D008F10108059BC2E7029A05F8C7
:10550000018CA5EB0B03934221D000230A220499BE
:10551000204600F0D6F8B14504904FF000034FF05C
:105520000A024946204605D100F0CBF881460646DE
:10553000059576E700F0C5F83146814600230A223A
:10554000204600F0BEF80646F2E74FF000090122BF
:105550000499204600F02CFA3946049000F07CFAB9
:105560000028B6DC02D118F0010FB2D115F8013CC9
:10557000302B05F1FF327FF40AAF1546F6E793456D
:1055800005D131230AF1010A8BF80030FFE61546F8
:105590009FE7DFF864B007E0219BDFF860B01BB144
:1055A0000BF10803219A1360584617B0BDE8F08F3D
:1055B000069B012B7FF735AE0E9B079349E6029BB6
:1055C000002B03DC069B022B3FF7CCAE5D46394631
:1055D0000498FFF7D0F900F1300805F8018B029A22
:1055E000A5EB0B039A42B0DD00230A220499204662
:1055F00000F067F80490EAE73C6300086063000885
:10560000044B1B68186A044B002808BF1846F0308A
:10561000704700BF180000207C000020024B0146AC
:10562000186800F03BBB00BF1800002070B5456A49
:1056300004460E463DB91020FFF7F0FF6062C0E956
:1056400001550560C560656AEB6883B1636ADB6814
:1056500053F82600B8B9012101FA06F56A1D920037
:10566000204600F0BFFA60B1C0E901650EE02122DA
:105670000421204600F0B6FA636AE860DB68002B7C
:10568000E4D1002070BD026843F826200023C0E961
:105690000333F7E770B5446A06460D463CB910205F
:1056A000FFF7BCFF7062C0E901440460C4603DB113
:1056B000736A6A68DB6853F82210296043F8225045
:1056C00070BD2DE9F0410D691F4606460C4601F1FB
:1056D000140C0023DCF8000081B202FB01710F0CF6
:1056E000000C02FB007089B2013301EB00419D42C6
:1056F0004FEA10474CF8041BECDCD7B1A368AB426F
:1057000012DC616830460131FFF790FF22690232F6
:1057100004F10C01804692000C30FEF78DFC21460E
:105720003046FFF7B7FF444604EB850301355F6160
:1057300025612046BDE8F081020C12040346B2B98F
:105740000304102013F07F4F04BF1B02083013F036
:10575000704F04BF1B01043013F0404F04BF9B0087
:105760000230002B06DB5B0003D5013070470020C0
:10577000E8E720207047036813F0070201460BD0CA
:10578000DA0723D4980749BF5B089B0801200B6008
:105790005CBF0B600220704798B2A8B91B0C1020A8
:1057A00013F0FF0F04BF1B0A08301A0704BF1B09C0
:1057B00004309A0704BF9B080230DA0702D45B0862
:1057C00006D001300B6070471046E9E700207047B3
:1057D0002020704710B50C460121FFF727FF01225A
:1057E0004461026110BD2DE9F74F14460A6923692F
:1057F0009A42B8BF0B468846BCBFA0461C46D8F8A4
:105800001070D4F81090D8F80830D8F8041007EBCE
:105810000906B342B8BF0131FFF708FF00F11405D4
:1058200005EB860E2B460022734516D304F11402B5
:1058300008F1140102EB890301EB87070093009B39
:10584000019293420CD8002E03DD5EF8043D002B3C
:105850005DD0066103B0BDE8F08F43F8042BE3E7A9
:10586000B2F800B0BBF1000F23D08946AC464FF030
:10587000000859F8044BDCF800A0A3B21FFA8AFA1A
:105880000BFB03A34FEA144ADCF8004043444FEA01
:1058900014480BFB0A8404EB1344E2469BB243EA30
:1058A00004434F454FEA14484AF8043B2BD8CCF840
:1058B0000480019BB3F802A00432BAF1000F20D09B
:1058C0002B688946A8464FF0000BB9F800C0B8F81D
:1058D00002400AFB0C445C44C4469BB243EA0443C6
:1058E0004CF8043B59F8043BB8F804B01B0C0AFB15
:1058F00003B303EB14434F454FEA134B05D8C8F8E5
:10590000043004359BE7D446B3E7E046DDE7013ECB
:1059100099E700002DE9F843154612F00302064608
:105920000F4607D0013A214C002354F82220FFF7FC
:10593000C8FE0746AD1035D0746A3CB91020FFF799
:105940006DFE7062C0E901440460C460D6F8248032
:10595000D8F808404CB940F271213046FFF73AFFC1
:105960000023C8F80800044603604FF00008EB0766
:105970000AD5394622463046FFF735FF394681467B
:105980003046FFF787FE4F466D100BD0206838B9C0
:10599000224621463046FFF726FF2060C0F80080EF
:1059A0000446E4E73846BDE8F88300BF60640008B9
:1059B0002DE9F0470C464FEA621A236949680AEB61
:1059C0000309A3680746164609F10105AB4232DB1D
:1059D0003846FFF72BFE0023804600F114011A46DB
:1059E00053452BDB20692AEAEA7A04F1140316F006
:1059F0001F0201EB8A0103EB800C25D0C2F1200EBF
:105A000000201E688A46964030434AF8040B53F83B
:105A1000040B9C4520FA0EF014D8486008B109F137
:105A20000205013D3846C8F810502146FFF732FE06
:105A30004046BDE8F08701315B00C7E741F823200D
:105A40000133CDE75146DCE7043953F8042B41F824
:105A5000042F9C45F9D8E4E703690A699B1A30B51D
:105A60000CD19200143014318418114454F8045DA0
:105A700051F8042D954203D005D30123184630BDBB
:105A8000A042F3D3FAE74FF0FF33F7E72DE9F047F1
:105A90000D460746114628461446FFF7DDFF061E51
:105AA00008D131463846FFF7C1FD0123C0E904366D
:105AB000BDE8F087A4BF23462C4638466168A6BFE0
:105AC0001D4600260126FFF7B1FD2B69C660266939
:105AD00005F1140904F1140202EB860709EB8308AF
